{"contracts/Raffle.sol":{"Raffle":{"abi":[{"inputs":[{"internalType":"address","name":"vrfCoordinatorV2","type":"address"},{"internalType":"string","name":"subscriptionId","type":"string"},{"internalType":"bytes32","name":"gasLane","type":"bytes32"},{"internalType":"uint256","name":"interval","type":"uint256"},{"internalType":"uint256","name":"entranceFee","type":"uint256"},{"internalType":"uint32","name":"callbackGasLimit","type":"uint32"}],"stateMutability":"nonpayable","type":"constructor"},{"inputs":[{"internalType":"address","name":"have","type":"address"},{"internalType":"address","name":"want","type":"address"}],"name":"OnlyCoordinatorCanFulfill","type":"error"},{"inputs":[],"name":"Raffle__NotEnoughETHEntered","type":"error"},{"inputs":[],"name":"Raffle__RaffleNotOpen","type":"error"},{"inputs":[],"name":"Raffle__TransferFailed","type":"error"},{"inputs":[{"internalType":"uint256","name":"currentBalance","type":"uint256"},{"internalType":"uint256","name":"numPlayers","type":"uint256"},{"internalType":"uint256","name":"raffleState","type":"uint256"}],"name":"Raffle__UpkeepNotNeeded","type":"error"},{"anonymous":false,"inputs":[{"indexed":true,"internalType":"address","name":"player","type":"address"}],"name":"RaffleEnter","type":"event"},{"anonymous":false,"inputs":[{"indexed":true,"internalType":"uint256","name":"requestId","type":"uint256"}],"name":"RequestRaffleWinner","type":"event"},{"anonymous":false,"inputs":[{"indexed":true,"internalType":"address","name":"winner","type":"address"}],"name":"WinnerPicked","type":"event"},{"inputs":[{"internalType":"bytes","name":"","type":"bytes"}],"name":"checkUpkeep","outputs":[{"internalType":"bool","name":"upkeepNeeded","type":"bool"},{"internalType":"bytes","name":"performData","type":"bytes"}],"stateMutability":"view","type":"function"},{"inputs":[],"name":"enterRaffle","outputs":[],"stateMutability":"payable","type":"function"},{"inputs":[],"name":"getEntranceFee","outputs":[{"internalType":"uint256","name":"","type":"uint256"}],"stateMutability":"view","type":"function"},{"inputs":[],"name":"getInterval","outputs":[{"internalType":"uint256","name":"","type":"uint256"}],"stateMutability":"view","type":"function"},{"inputs":[],"name":"getLatestTimeStamp","outputs":[{"internalType":"uint256","name":"","type":"uint256"}],"stateMutability":"view","type":"function"},{"inputs":[],"name":"getNumOfPlayers","outputs":[{"internalType":"uint256","name":"","type":"uint256"}],"stateMutability":"view","type":"function"},{"inputs":[],"name":"getNumWords","outputs":[{"internalType":"uint256","name":"","type":"uint256"}],"stateMutability":"pure","type":"function"},{"inputs":[{"internalType":"uint256","name":"index","type":"uint256"}],"name":"getPlayer","outputs":[{"internalType":"address","name":"","type":"address"}],"stateMutability":"view","type":"function"},{"inputs":[],"name":"getRaffleState","outputs":[{"internalType":"enum Raffle.RaffleState","name":"","type":"uint8"}],"stateMutability":"view","type":"function"},{"inputs":[],"name":"getRecentWinner","outputs":[{"internalType":"address","name":"","type":"address"}],"stateMutability":"view","type":"function"},{"inputs":[],"name":"getRequestConfirmations","outputs":[{"internalType":"uint256","name":"","type":"uint256"}],"stateMutability":"view","type":"function"},{"inputs":[],"name":"getcallbackGasLimit","outputs":[{"internalType":"uint256","name":"","type":"uint256"}],"stateMutability":"view","type":"function"},{"inputs":[],"name":"getsubscriptionId","outputs":[{"internalType":"uint256","name":"","type":"uint256"}],"stateMutability":"view","type":"function"},{"inputs":[{"internalType":"bytes","name":"","type":"bytes"}],"name":"performUpkeep","outputs":[],"stateMutability":"nonpayable","type":"function"},{"inputs":[{"internalType":"uint256","name":"requestId","type":"uint256"},{"internalType":"uint256[]","name":"randomWords","type":"uint256[]"}],"name":"rawFulfillRandomWords","outputs":[],"stateMutability":"nonpayable","type":"function"}],"devdoc":{"author":"Abdul Basit","details":"This implements the Chainlink VRF Version 2","kind":"dev","methods":{"checkUpkeep(bytes)":{"details":"This is the function that the Chainlink Keeper nodes call they look for `upkeepNeeded` to return True. the following should be true for this to return true: 1. The time interval has passed between raffle runs. 2. The lottery is open. 3. The contract has ETH. 4. Implicity, your subscription is funded with LINK."}},"title":"A sample Raffle Contract","version":1},"evm":{"bytecode":{"linkReferences":{},"object":"6101606040523480156200001257600080fd5b5060405162001e2d38038062001e2d833981810160405281019062000038919062000311565b858073ffffffffffffffffffffffffffffffffffffffff1660808173ffffffffffffffffffffffffffffffffffffffff1660601b81525050508573ffffffffffffffffffffffffffffffffffffffff1660c08173ffffffffffffffffffffffffffffffffffffffff1660601b815250508360e08181525050826101408181525050620000ca856200014a60201b60201c565b67ffffffffffffffff166101008167ffffffffffffffff1660c01b815250508160a081815250506000600160146101000a81548160ff021916908360018111156200011a576200011962000672565b5b0217905550426002819055508063ffffffff166101208163ffffffff1660e01b815250505050505050506200078c565b6000808290506000805b82518110156200022c576030838281518110620001765762000175620006a1565b5b602001015160f81c60f81b60f81c60ff1610158015620001bd57506039838281518110620001a957620001a8620006a1565b5b602001015160f81c60f81b60f81c60ff1611155b1562000216576030838281518110620001db57620001da620006a1565b5b602001015160f81c60f81b60f81c620001f59190620004e9565b60ff16600a8362000207919062000488565b6200021391906200042b565b91505b80806200022390620005f5565b91505062000154565b508092505050919050565b60006200024e6200024884620003f5565b620003cc565b9050828152602081018484840111156200026d576200026c62000704565b5b6200027a84828562000589565b509392505050565b600081519050620002938162000724565b92915050565b600081519050620002aa816200073e565b92915050565b600082601f830112620002c857620002c7620006ff565b5b8151620002da84826020860162000237565b91505092915050565b600081519050620002f48162000758565b92915050565b6000815190506200030b8162000772565b92915050565b60008060008060008060c087890312156200033157620003306200070e565b5b60006200034189828a0162000282565b965050602087015167ffffffffffffffff81111562000365576200036462000709565b5b6200037389828a01620002b0565b95505060406200038689828a0162000299565b94505060606200039989828a01620002e3565b9350506080620003ac89828a01620002e3565b92505060a0620003bf89828a01620002fa565b9150509295509295509295565b6000620003d8620003eb565b9050620003e68282620005bf565b919050565b6000604051905090565b600067ffffffffffffffff821115620004135762000412620006d0565b5b6200041e8262000713565b9050602081019050919050565b6000620004388262000562565b9150620004458362000562565b9250827fffffffffffffffffffffffffffffffffffffffffffffffffffffffffffffffff038211156200047d576200047c62000643565b5b828201905092915050565b6000620004958262000562565b9150620004a28362000562565b9250817fffffffffffffffffffffffffffffffffffffffffffffffffffffffffffffffff0483118215151615620004de57620004dd62000643565b5b828202905092915050565b6000620004f6826200057c565b915062000503836200057c565b92508282101562000519576200051862000643565b5b828203905092915050565b6000620005318262000542565b9050919050565b6000819050919050565b600073ffffffffffffffffffffffffffffffffffffffff82169050919050565b6000819050919050565b600063ffffffff82169050919050565b600060ff82169050919050565b60005b83811015620005a95780820151818401526020810190506200058c565b83811115620005b9576000848401525b50505050565b620005ca8262000713565b810181811067ffffffffffffffff82111715620005ec57620005eb620006d0565b5b80604052505050565b6000620006028262000562565b91507fffffffffffffffffffffffffffffffffffffffffffffffffffffffffffffffff82141562000638576200063762000643565b5b600182019050919050565b7f4e487b7100000000000000000000000000000000000000000000000000000000600052601160045260246000fd5b7f4e487b7100000000000000000000000000000000000000000000000000000000600052602160045260246000fd5b7f4e487b7100000000000000000000000000000000000000000000000000000000600052603260045260246000fd5b7f4e487b7100000000000000000000000000000000000000000000000000000000600052604160045260246000fd5b600080fd5b600080fd5b600080fd5b600080fd5b6000601f19601f8301169050919050565b6200072f8162000524565b81146200073b57600080fd5b50565b620007498162000538565b81146200075557600080fd5b50565b620007638162000562565b81146200076f57600080fd5b50565b6200077d816200056c565b81146200078957600080fd5b50565b60805160601c60a05160c05160601c60e0516101005160c01c6101205160e01c6101405161161762000816600039600081816108f20152610962015260008181610795015261098a01526000818161077201526109b8015260006107510152600061071501526000818161037601526104730152600081816103b3015261040701526116176000f3fe6080604052600436106100e85760003560e01c806353a2c19a1161008a57806391ad27b41161005957806391ad27b4146102b45780639862eed0146102df578063b4f8d9f21461030a578063e55ae4e814610335576100e8565b806353a2c19a146101f5578063565429de146102205780635f1b0fd81461024b5780636e04ff0d14610276576100e8565b80632cfcc539116100c65780632cfcc5391461016c578063320229eb146101765780634585e33b146101a1578063473f1ddc146101ca576100e8565b806309bc33a7146100ed578063115cbaf5146101185780631fe543e314610143575b600080fd5b3480156100f957600080fd5b50610102610372565b60405161010f9190611215565b60405180910390f35b34801561012457600080fd5b5061012d61039a565b60405161013a91906111da565b60405180910390f35b34801561014f57600080fd5b5061016a60048036038101906101659190610fab565b6103b1565b005b610174610471565b005b34801561018257600080fd5b5061018b6105e0565b6040516101989190611215565b60405180910390f35b3480156101ad57600080fd5b506101c860048036038101906101c39190610f04565b6105ea565b005b3480156101d657600080fd5b506101df61085d565b6040516101ec9190611113565b60405180910390f35b34801561020157600080fd5b5061020a610887565b6040516102179190611215565b60405180910390f35b34801561022c57600080fd5b50610235610896565b6040516102429190611215565b60405180910390f35b34801561025757600080fd5b506102606108a2565b60405161026d9190611215565b60405180910390f35b34801561028257600080fd5b5061029d60048036038101906102989190610f04565b6108af565b6040516102ab929190611157565b60405180910390f35b3480156102c057600080fd5b506102c961095e565b6040516102d69190611215565b60405180910390f35b3480156102eb57600080fd5b506102f4610986565b6040516103019190611215565b60405180910390f35b34801561031657600080fd5b5061031f6109b4565b60405161032c9190611215565b60405180910390f35b34801561034157600080fd5b5061035c60048036038101906103579190610f51565b6109e6565b6040516103699190611113565b60405180910390f35b60007f0000000000000000000000000000000000000000000000000000000000000000905090565b6000600160149054906101000a900460ff16905090565b7f000000000000000000000000000000000000000000000000000000000000000073ffffffffffffffffffffffffffffffffffffffff163373ffffffffffffffffffffffffffffffffffffffff161461046357337f00000000000000000000000000000000000000000000000000000000000000006040517f1cf993f400000000000000000000000000000000000000000000000000000000815260040161045a92919061112e565b60405180910390fd5b61046d8282610a2d565b5050565b7f00000000000000000000000000000000000000000000000000000000000000003410156104cb576040517fbd4e069500000000000000000000000000000000000000000000000000000000815260040160405180910390fd5b600060018111156104df576104de6114e0565b5b600160149054906101000a900460ff166001811115610501576105006114e0565b5b14610538576040517fd24a271400000000000000000000000000000000000000000000000000000000815260040160405180910390fd5b6000339080600181540180825580915050600190039060005260206000200160009091909190916101000a81548173ffffffffffffffffffffffffffffffffffffffff021916908373ffffffffffffffffffffffffffffffffffffffff1602179055503373ffffffffffffffffffffffffffffffffffffffff167f0805e1d667bddb8a95f0f09880cf94f403fb596ce79928d9f29b74203ba284d460405160405180910390a2565b6000600254905090565b60003073ffffffffffffffffffffffffffffffffffffffff16636e04ff0d6040518163ffffffff1660e01b8152600401610623906111f5565b60006040518083038186803b15801561063b57600080fd5b505afa15801561064f573d6000803e3d6000fd5b505050506040513d6000823e3d601f19601f820116820180604052508101906106789190610ea8565b509050806106e75747600080549050600160149054906101000a900460ff1660018111156106a9576106a86114e0565b5b6040517f584327aa0000000000000000000000000000000000000000000000000000000081526004016106de93929190611230565b60405180910390fd5b60018060146101000a81548160ff0219169083600181111561070c5761070b6114e0565b5b021790555060007f000000000000000000000000000000000000000000000000000000000000000073ffffffffffffffffffffffffffffffffffffffff16635d3b1d307f00000000000000000000000000000000000000000000000000000000000000007f000000000000000000000000000000000000000000000000000000000000000060037f000000000000000000000000000000000000000000000000000000000000000060016040518663ffffffff1660e01b81526004016107d6959493929190611187565b602060405180830381600087803b1580156107f057600080fd5b505af1158015610804573d6000803e3d6000fd5b505050506040513d601f19601f820116820180604052508101906108289190610f7e565b9050807fde6349b018d6c03d837b67d9a198a6ba4842546f2295fe963fae141e5dbaef8160405160405180910390a250505050565b6000600160009054906101000a900473ffffffffffffffffffffffffffffffffffffffff16905090565b6000600163ffffffff16905090565b60008080549050905090565b6000600361ffff16905090565b600060606000600160149054906101000a900460ff1660018111156108d7576108d66114e0565b5b600060018111156108eb576108ea6114e0565b5b14905060007f00000000000000000000000000000000000000000000000000000000000000006002544261091f9190611310565b1190506000806000805490501190506000804711905083801561093f5750825b80156109485750815b80156109515750805b9550505050509250929050565b60007f0000000000000000000000000000000000000000000000000000000000000000905090565b60007f000000000000000000000000000000000000000000000000000000000000000063ffffffff16905090565b60007f000000000000000000000000000000000000000000000000000000000000000067ffffffffffffffff16905090565b60008082815481106109fb576109fa61150f565b5b9060005260206000200160009054906101000a900473ffffffffffffffffffffffffffffffffffffffff169050919050565b6000808054905082600081518110610a4857610a4761150f565b5b6020026020010151610a5a9190611451565b90506000808281548110610a7157610a7061150f565b5b9060005260206000200160009054906101000a900473ffffffffffffffffffffffffffffffffffffffff16905080600160006101000a81548173ffffffffffffffffffffffffffffffffffffffff021916908373ffffffffffffffffffffffffffffffffffffffff1602179055506000600160146101000a81548160ff02191690836001811115610b0557610b046114e0565b5b0217905550600067ffffffffffffffff811115610b2557610b2461153e565b5b604051908082528060200260200182016040528015610b535781602001602082028036833780820191505090505b5060009080519060200190610b69929190610c5e565b504260028190555060008173ffffffffffffffffffffffffffffffffffffffff1647604051610b97906110fe565b60006040518083038185875af1925050503d8060008114610bd4576040519150601f19603f3d011682016040523d82523d6000602084013e610bd9565b606091505b5050905080610c14576040517fa1d04b3900000000000000000000000000000000000000000000000000000000815260040160405180910390fd5b8173ffffffffffffffffffffffffffffffffffffffff167f5b690ec4a06fe979403046eaeea5b3ce38524683c3001f662c8b5a829632f7df60405160405180910390a25050505050565b828054828255906000526020600020908101928215610cd7579160200282015b82811115610cd65782518260006101000a81548173ffffffffffffffffffffffffffffffffffffffff021916908373ffffffffffffffffffffffffffffffffffffffff16021790555091602001919060010190610c7e565b5b509050610ce49190610ce8565b5090565b5b80821115610d01576000816000905550600101610ce9565b5090565b6000610d18610d138461128c565b611267565b90508083825260208201905082856020860282011115610d3b57610d3a611577565b5b60005b85811015610d6b5781610d518882610e7e565b845260208401935060208301925050600181019050610d3e565b5050509392505050565b6000610d88610d83846112b8565b611267565b905082815260208101848484011115610da457610da361157c565b5b610daf8482856113ed565b509392505050565b600082601f830112610dcc57610dcb611572565b5b8135610ddc848260208601610d05565b91505092915050565b600081519050610df4816115b3565b92915050565b60008083601f840112610e1057610e0f611572565b5b8235905067ffffffffffffffff811115610e2d57610e2c61156d565b5b602083019150836001820283011115610e4957610e48611577565b5b9250929050565b600082601f830112610e6557610e64611572565b5b8151610e75848260208601610d75565b91505092915050565b600081359050610e8d816115ca565b92915050565b600081519050610ea2816115ca565b92915050565b60008060408385031215610ebf57610ebe611586565b5b6000610ecd85828601610de5565b925050602083015167ffffffffffffffff811115610eee57610eed611581565b5b610efa85828601610e50565b9150509250929050565b60008060208385031215610f1b57610f1a611586565b5b600083013567ffffffffffffffff811115610f3957610f38611581565b5b610f4585828601610dfa565b92509250509250929050565b600060208284031215610f6757610f66611586565b5b6000610f7584828501610e7e565b91505092915050565b600060208284031215610f9457610f93611586565b5b6000610fa284828501610e93565b91505092915050565b60008060408385031215610fc257610fc1611586565b5b6000610fd085828601610e7e565b925050602083013567ffffffffffffffff811115610ff157610ff0611581565b5b610ffd85828601610db7565b9150509250929050565b61101081611344565b82525050565b61101f81611356565b82525050565b61102e81611362565b82525050565b600061103f826112e9565b61104981856112f4565b93506110598185602086016113ed565b6110628161158b565b840191505092915050565b611076816113db565b82525050565b60006110896000836112f4565b91506110948261159c565b600082019050919050565b60006110ac600083611305565b91506110b78261159c565b600082019050919050565b6110cb8161137f565b82525050565b6110da816113ad565b82525050565b6110e9816113b7565b82525050565b6110f8816113c7565b82525050565b60006111098261109f565b9150819050919050565b60006020820190506111286000830184611007565b92915050565b60006040820190506111436000830185611007565b6111506020830184611007565b9392505050565b600060408201905061116c6000830185611016565b818103602083015261117e8184611034565b90509392505050565b600060a08201905061119c6000830188611025565b6111a960208301876110ef565b6111b660408301866110c2565b6111c360608301856110e0565b6111d060808301846110e0565b9695505050505050565b60006020820190506111ef600083018461106d565b92915050565b6000602082019050818103600083015261120e8161107c565b9050919050565b600060208201905061122a60008301846110d1565b92915050565b600060608201905061124560008301866110d1565b61125260208301856110d1565b61125f60408301846110d1565b949350505050565b6000611271611282565b905061127d8282611420565b919050565b6000604051905090565b600067ffffffffffffffff8211156112a7576112a661153e565b5b602082029050602081019050919050565b600067ffffffffffffffff8211156112d3576112d261153e565b5b6112dc8261158b565b9050602081019050919050565b600081519050919050565b600082825260208201905092915050565b600081905092915050565b600061131b826113ad565b9150611326836113ad565b92508282101561133957611338611482565b5b828203905092915050565b600061134f8261138d565b9050919050565b60008115159050919050565b6000819050919050565b600081905061137a8261159f565b919050565b600061ffff82169050919050565b600073ffffffffffffffffffffffffffffffffffffffff82169050919050565b6000819050919050565b600063ffffffff82169050919050565b600067ffffffffffffffff82169050919050565b60006113e68261136c565b9050919050565b60005b8381101561140b5780820151818401526020810190506113f0565b8381111561141a576000848401525b50505050565b6114298261158b565b810181811067ffffffffffffffff821117156114485761144761153e565b5b80604052505050565b600061145c826113ad565b9150611467836113ad565b925082611477576114766114b1565b5b828206905092915050565b7f4e487b7100000000000000000000000000000000000000000000000000000000600052601160045260246000fd5b7f4e487b7100000000000000000000000000000000000000000000000000000000600052601260045260246000fd5b7f4e487b7100000000000000000000000000000000000000000000000000000000600052602160045260246000fd5b7f4e487b7100000000000000000000000000000000000000000000000000000000600052603260045260246000fd5b7f4e487b7100000000000000000000000000000000000000000000000000000000600052604160045260246000fd5b600080fd5b600080fd5b600080fd5b600080fd5b600080fd5b600080fd5b6000601f19601f8301169050919050565b50565b600281106115b0576115af6114e0565b5b50565b6115bc81611356565b81146115c757600080fd5b50565b6115d3816113ad565b81146115de57600080fd5b5056fea264697066735822122064b56fa66b0ddf60e2e0c79eddf78c94e1e1236f36fefff231eea00774d7738564736f6c63430008070033","opcodes":"PUSH2 0x160 PUSH1 0x40 MSTORE CALLVALUE DUP1 ISZERO PUSH3 0x12 JUMPI PUSH1 0x0 DUP1 REVERT JUMPDEST POP PUSH1 0x40 MLOAD PUSH3 0x1E2D CODESIZE SUB DUP1 PUSH3 0x1E2D DUP4 CODECOPY DUP2 DUP2 ADD PUSH1 0x40 MSTORE DUP2 ADD SWAP1 PUSH3 0x38 SWAP2 SWAP1 PUSH3 0x311 JUMP JUMPDEST DUP6 DUP1 PUSH20 0xFFFFFFFFFFFFFFFFFFFFFFFFFFFFFFFFFFFFFFFF AND PUSH1 0x80 DUP2 PUSH20 0xFFFFFFFFFFFFFFFFFFFFFFFFFFFFFFFFFFFFFFFF AND PUSH1 0x60 SHL DUP2 MSTORE POP POP POP DUP6 PUSH20 0xFFFFFFFFFFFFFFFFFFFFFFFFFFFFFFFFFFFFFFFF AND PUSH1 0xC0 DUP2 PUSH20 0xFFFFFFFFFFFFFFFFFFFFFFFFFFFFFFFFFFFFFFFF AND PUSH1 0x60 SHL DUP2 MSTORE POP POP DUP4 PUSH1 0xE0 DUP2 DUP2 MSTORE POP POP DUP3 PUSH2 0x140 DUP2 DUP2 MSTORE POP POP PUSH3 0xCA DUP6 PUSH3 0x14A PUSH1 0x20 SHL PUSH1 0x20 SHR JUMP JUMPDEST PUSH8 0xFFFFFFFFFFFFFFFF AND PUSH2 0x100 DUP2 PUSH8 0xFFFFFFFFFFFFFFFF AND PUSH1 0xC0 SHL DUP2 MSTORE POP POP DUP2 PUSH1 0xA0 DUP2 DUP2 MSTORE POP POP PUSH1 0x0 PUSH1 0x1 PUSH1 0x14 PUSH2 0x100 EXP DUP2 SLOAD DUP2 PUSH1 0xFF MUL NOT AND SWAP1 DUP4 PUSH1 0x1 DUP2 GT ISZERO PUSH3 0x11A JUMPI PUSH3 0x119 PUSH3 0x672 JUMP JUMPDEST JUMPDEST MUL OR SWAP1 SSTORE POP TIMESTAMP PUSH1 0x2 DUP2 SWAP1 SSTORE POP DUP1 PUSH4 0xFFFFFFFF AND PUSH2 0x120 DUP2 PUSH4 0xFFFFFFFF AND PUSH1 0xE0 SHL DUP2 MSTORE POP POP POP POP POP POP POP POP PUSH3 0x78C JUMP JUMPDEST PUSH1 0x0 DUP1 DUP3 SWAP1 POP PUSH1 0x0 DUP1 JUMPDEST DUP3 MLOAD DUP2 LT ISZERO PUSH3 0x22C JUMPI PUSH1 0x30 DUP4 DUP3 DUP2 MLOAD DUP2 LT PUSH3 0x176 JUMPI PUSH3 0x175 PUSH3 0x6A1 JUMP JUMPDEST JUMPDEST PUSH1 0x20 ADD ADD MLOAD PUSH1 0xF8 SHR PUSH1 0xF8 SHL PUSH1 0xF8 SHR PUSH1 0xFF AND LT ISZERO DUP1 ISZERO PUSH3 0x1BD JUMPI POP PUSH1 0x39 DUP4 DUP3 DUP2 MLOAD DUP2 LT PUSH3 0x1A9 JUMPI PUSH3 0x1A8 PUSH3 0x6A1 JUMP JUMPDEST JUMPDEST PUSH1 0x20 ADD ADD MLOAD PUSH1 0xF8 SHR PUSH1 0xF8 SHL PUSH1 0xF8 SHR PUSH1 0xFF AND GT ISZERO JUMPDEST ISZERO PUSH3 0x216 JUMPI PUSH1 0x30 DUP4 DUP3 DUP2 MLOAD DUP2 LT PUSH3 0x1DB JUMPI PUSH3 0x1DA PUSH3 0x6A1 JUMP JUMPDEST JUMPDEST PUSH1 0x20 ADD ADD MLOAD PUSH1 0xF8 SHR PUSH1 0xF8 SHL PUSH1 0xF8 SHR PUSH3 0x1F5 SWAP2 SWAP1 PUSH3 0x4E9 JUMP JUMPDEST PUSH1 0xFF AND PUSH1 0xA DUP4 PUSH3 0x207 SWAP2 SWAP1 PUSH3 0x488 JUMP JUMPDEST PUSH3 0x213 SWAP2 SWAP1 PUSH3 0x42B JUMP JUMPDEST SWAP2 POP JUMPDEST DUP1 DUP1 PUSH3 0x223 SWAP1 PUSH3 0x5F5 JUMP JUMPDEST SWAP2 POP POP PUSH3 0x154 JUMP JUMPDEST POP DUP1 SWAP3 POP POP POP SWAP2 SWAP1 POP JUMP JUMPDEST PUSH1 0x0 PUSH3 0x24E PUSH3 0x248 DUP5 PUSH3 0x3F5 JUMP JUMPDEST PUSH3 0x3CC JUMP JUMPDEST SWAP1 POP DUP3 DUP2 MSTORE PUSH1 0x20 DUP2 ADD DUP5 DUP5 DUP5 ADD GT ISZERO PUSH3 0x26D JUMPI PUSH3 0x26C PUSH3 0x704 JUMP JUMPDEST JUMPDEST PUSH3 0x27A DUP5 DUP3 DUP6 PUSH3 0x589 JUMP JUMPDEST POP SWAP4 SWAP3 POP POP POP JUMP JUMPDEST PUSH1 0x0 DUP2 MLOAD SWAP1 POP PUSH3 0x293 DUP2 PUSH3 0x724 JUMP JUMPDEST SWAP3 SWAP2 POP POP JUMP JUMPDEST PUSH1 0x0 DUP2 MLOAD SWAP1 POP PUSH3 0x2AA DUP2 PUSH3 0x73E JUMP JUMPDEST SWAP3 SWAP2 POP POP JUMP JUMPDEST PUSH1 0x0 DUP3 PUSH1 0x1F DUP4 ADD SLT PUSH3 0x2C8 JUMPI PUSH3 0x2C7 PUSH3 0x6FF JUMP JUMPDEST JUMPDEST DUP2 MLOAD PUSH3 0x2DA DUP5 DUP3 PUSH1 0x20 DUP7 ADD PUSH3 0x237 JUMP JUMPDEST SWAP2 POP POP SWAP3 SWAP2 POP POP JUMP JUMPDEST PUSH1 0x0 DUP2 MLOAD SWAP1 POP PUSH3 0x2F4 DUP2 PUSH3 0x758 JUMP JUMPDEST SWAP3 SWAP2 POP POP JUMP JUMPDEST PUSH1 0x0 DUP2 MLOAD SWAP1 POP PUSH3 0x30B DUP2 PUSH3 0x772 JUMP JUMPDEST SWAP3 SWAP2 POP POP JUMP JUMPDEST PUSH1 0x0 DUP1 PUSH1 0x0 DUP1 PUSH1 0x0 DUP1 PUSH1 0xC0 DUP8 DUP10 SUB SLT ISZERO PUSH3 0x331 JUMPI PUSH3 0x330 PUSH3 0x70E JUMP JUMPDEST JUMPDEST PUSH1 0x0 PUSH3 0x341 DUP10 DUP3 DUP11 ADD PUSH3 0x282 JUMP JUMPDEST SWAP7 POP POP PUSH1 0x20 DUP8 ADD MLOAD PUSH8 0xFFFFFFFFFFFFFFFF DUP2 GT ISZERO PUSH3 0x365 JUMPI PUSH3 0x364 PUSH3 0x709 JUMP JUMPDEST JUMPDEST PUSH3 0x373 DUP10 DUP3 DUP11 ADD PUSH3 0x2B0 JUMP JUMPDEST SWAP6 POP POP PUSH1 0x40 PUSH3 0x386 DUP10 DUP3 DUP11 ADD PUSH3 0x299 JUMP JUMPDEST SWAP5 POP POP PUSH1 0x60 PUSH3 0x399 DUP10 DUP3 DUP11 ADD PUSH3 0x2E3 JUMP JUMPDEST SWAP4 POP POP PUSH1 0x80 PUSH3 0x3AC DUP10 DUP3 DUP11 ADD PUSH3 0x2E3 JUMP JUMPDEST SWAP3 POP POP PUSH1 0xA0 PUSH3 0x3BF DUP10 DUP3 DUP11 ADD PUSH3 0x2FA JUMP JUMPDEST SWAP2 POP POP SWAP3 SWAP6 POP SWAP3 SWAP6 POP SWAP3 SWAP6 JUMP JUMPDEST PUSH1 0x0 PUSH3 0x3D8 PUSH3 0x3EB JUMP JUMPDEST SWAP1 POP PUSH3 0x3E6 DUP3 DUP3 PUSH3 0x5BF JUMP JUMPDEST SWAP2 SWAP1 POP JUMP JUMPDEST PUSH1 0x0 PUSH1 0x40 MLOAD SWAP1 POP SWAP1 JUMP JUMPDEST PUSH1 0x0 PUSH8 0xFFFFFFFFFFFFFFFF DUP3 GT ISZERO PUSH3 0x413 JUMPI PUSH3 0x412 PUSH3 0x6D0 JUMP JUMPDEST JUMPDEST PUSH3 0x41E DUP3 PUSH3 0x713 JUMP JUMPDEST SWAP1 POP PUSH1 0x20 DUP2 ADD SWAP1 POP SWAP2 SWAP1 POP JUMP JUMPDEST PUSH1 0x0 PUSH3 0x438 DUP3 PUSH3 0x562 JUMP JUMPDEST SWAP2 POP PUSH3 0x445 DUP4 PUSH3 0x562 JUMP JUMPDEST SWAP3 POP DUP3 PUSH32 0xFFFFFFFFFFFFFFFFFFFFFFFFFFFFFFFFFFFFFFFFFFFFFFFFFFFFFFFFFFFFFFFF SUB DUP3 GT ISZERO PUSH3 0x47D JUMPI PUSH3 0x47C PUSH3 0x643 JUMP JUMPDEST JUMPDEST DUP3 DUP3 ADD SWAP1 POP SWAP3 SWAP2 POP POP JUMP JUMPDEST PUSH1 0x0 PUSH3 0x495 DUP3 PUSH3 0x562 JUMP JUMPDEST SWAP2 POP PUSH3 0x4A2 DUP4 PUSH3 0x562 JUMP JUMPDEST SWAP3 POP DUP2 PUSH32 0xFFFFFFFFFFFFFFFFFFFFFFFFFFFFFFFFFFFFFFFFFFFFFFFFFFFFFFFFFFFFFFFF DIV DUP4 GT DUP3 ISZERO ISZERO AND ISZERO PUSH3 0x4DE JUMPI PUSH3 0x4DD PUSH3 0x643 JUMP JUMPDEST JUMPDEST DUP3 DUP3 MUL SWAP1 POP SWAP3 SWAP2 POP POP JUMP JUMPDEST PUSH1 0x0 PUSH3 0x4F6 DUP3 PUSH3 0x57C JUMP JUMPDEST SWAP2 POP PUSH3 0x503 DUP4 PUSH3 0x57C JUMP JUMPDEST SWAP3 POP DUP3 DUP3 LT ISZERO PUSH3 0x519 JUMPI PUSH3 0x518 PUSH3 0x643 JUMP JUMPDEST JUMPDEST DUP3 DUP3 SUB SWAP1 POP SWAP3 SWAP2 POP POP JUMP JUMPDEST PUSH1 0x0 PUSH3 0x531 DUP3 PUSH3 0x542 JUMP JUMPDEST SWAP1 POP SWAP2 SWAP1 POP JUMP JUMPDEST PUSH1 0x0 DUP2 SWAP1 POP SWAP2 SWAP1 POP JUMP JUMPDEST PUSH1 0x0 PUSH20 0xFFFFFFFFFFFFFFFFFFFFFFFFFFFFFFFFFFFFFFFF DUP3 AND SWAP1 POP SWAP2 SWAP1 POP JUMP JUMPDEST PUSH1 0x0 DUP2 SWAP1 POP SWAP2 SWAP1 POP JUMP JUMPDEST PUSH1 0x0 PUSH4 0xFFFFFFFF DUP3 AND SWAP1 POP SWAP2 SWAP1 POP JUMP JUMPDEST PUSH1 0x0 PUSH1 0xFF DUP3 AND SWAP1 POP SWAP2 SWAP1 POP JUMP JUMPDEST PUSH1 0x0 JUMPDEST DUP4 DUP2 LT ISZERO PUSH3 0x5A9 JUMPI DUP1 DUP3 ADD MLOAD DUP2 DUP5 ADD MSTORE PUSH1 0x20 DUP2 ADD SWAP1 POP PUSH3 0x58C JUMP JUMPDEST DUP4 DUP2 GT ISZERO PUSH3 0x5B9 JUMPI PUSH1 0x0 DUP5 DUP5 ADD MSTORE JUMPDEST POP POP POP POP JUMP JUMPDEST PUSH3 0x5CA DUP3 PUSH3 0x713 JUMP JUMPDEST DUP2 ADD DUP2 DUP2 LT PUSH8 0xFFFFFFFFFFFFFFFF DUP3 GT OR ISZERO PUSH3 0x5EC JUMPI PUSH3 0x5EB PUSH3 0x6D0 JUMP JUMPDEST JUMPDEST DUP1 PUSH1 0x40 MSTORE POP POP POP JUMP JUMPDEST PUSH1 0x0 PUSH3 0x602 DUP3 PUSH3 0x562 JUMP JUMPDEST SWAP2 POP PUSH32 0xFFFFFFFFFFFFFFFFFFFFFFFFFFFFFFFFFFFFFFFFFFFFFFFFFFFFFFFFFFFFFFFF DUP3 EQ ISZERO PUSH3 0x638 JUMPI PUSH3 0x637 PUSH3 0x643 JUMP JUMPDEST JUMPDEST PUSH1 0x1 DUP3 ADD SWAP1 POP SWAP2 SWAP1 POP JUMP JUMPDEST PUSH32 0x4E487B7100000000000000000000000000000000000000000000000000000000 PUSH1 0x0 MSTORE PUSH1 0x11 PUSH1 0x4 MSTORE PUSH1 0x24 PUSH1 0x0 REVERT JUMPDEST PUSH32 0x4E487B7100000000000000000000000000000000000000000000000000000000 PUSH1 0x0 MSTORE PUSH1 0x21 PUSH1 0x4 MSTORE PUSH1 0x24 PUSH1 0x0 REVERT JUMPDEST PUSH32 0x4E487B7100000000000000000000000000000000000000000000000000000000 PUSH1 0x0 MSTORE PUSH1 0x32 PUSH1 0x4 MSTORE PUSH1 0x24 PUSH1 0x0 REVERT JUMPDEST PUSH32 0x4E487B7100000000000000000000000000000000000000000000000000000000 PUSH1 0x0 MSTORE PUSH1 0x41 PUSH1 0x4 MSTORE PUSH1 0x24 PUSH1 0x0 REVERT JUMPDEST PUSH1 0x0 DUP1 REVERT JUMPDEST PUSH1 0x0 DUP1 REVERT JUMPDEST PUSH1 0x0 DUP1 REVERT JUMPDEST PUSH1 0x0 DUP1 REVERT JUMPDEST PUSH1 0x0 PUSH1 0x1F NOT PUSH1 0x1F DUP4 ADD AND SWAP1 POP SWAP2 SWAP1 POP JUMP JUMPDEST PUSH3 0x72F DUP2 PUSH3 0x524 JUMP JUMPDEST DUP2 EQ PUSH3 0x73B JUMPI PUSH1 0x0 DUP1 REVERT JUMPDEST POP JUMP JUMPDEST PUSH3 0x749 DUP2 PUSH3 0x538 JUMP JUMPDEST DUP2 EQ PUSH3 0x755 JUMPI PUSH1 0x0 DUP1 REVERT JUMPDEST POP JUMP JUMPDEST PUSH3 0x763 DUP2 PUSH3 0x562 JUMP JUMPDEST DUP2 EQ PUSH3 0x76F JUMPI PUSH1 0x0 DUP1 REVERT JUMPDEST POP JUMP JUMPDEST PUSH3 0x77D DUP2 PUSH3 0x56C JUMP JUMPDEST DUP2 EQ PUSH3 0x789 JUMPI PUSH1 0x0 DUP1 REVERT JUMPDEST POP JUMP JUMPDEST PUSH1 0x80 MLOAD PUSH1 0x60 SHR PUSH1 0xA0 MLOAD PUSH1 0xC0 MLOAD PUSH1 0x60 SHR PUSH1 0xE0 MLOAD PUSH2 0x100 MLOAD PUSH1 0xC0 SHR PUSH2 0x120 MLOAD PUSH1 0xE0 SHR PUSH2 0x140 MLOAD PUSH2 0x1617 PUSH3 0x816 PUSH1 0x0 CODECOPY PUSH1 0x0 DUP2 DUP2 PUSH2 0x8F2 ADD MSTORE PUSH2 0x962 ADD MSTORE PUSH1 0x0 DUP2 DUP2 PUSH2 0x795 ADD MSTORE PUSH2 0x98A ADD MSTORE PUSH1 0x0 DUP2 DUP2 PUSH2 0x772 ADD MSTORE PUSH2 0x9B8 ADD MSTORE PUSH1 0x0 PUSH2 0x751 ADD MSTORE PUSH1 0x0 PUSH2 0x715 ADD MSTORE PUSH1 0x0 DUP2 DUP2 PUSH2 0x376 ADD MSTORE PUSH2 0x473 ADD MSTORE PUSH1 0x0 DUP2 DUP2 PUSH2 0x3B3 ADD MSTORE PUSH2 0x407 ADD MSTORE PUSH2 0x1617 PUSH1 0x0 RETURN INVALID PUSH1 0x80 PUSH1 0x40 MSTORE PUSH1 0x4 CALLDATASIZE LT PUSH2 0xE8 JUMPI PUSH1 0x0 CALLDATALOAD PUSH1 0xE0 SHR DUP1 PUSH4 0x53A2C19A GT PUSH2 0x8A JUMPI DUP1 PUSH4 0x91AD27B4 GT PUSH2 0x59 JUMPI DUP1 PUSH4 0x91AD27B4 EQ PUSH2 0x2B4 JUMPI DUP1 PUSH4 0x9862EED0 EQ PUSH2 0x2DF JUMPI DUP1 PUSH4 0xB4F8D9F2 EQ PUSH2 0x30A JUMPI DUP1 PUSH4 0xE55AE4E8 EQ PUSH2 0x335 JUMPI PUSH2 0xE8 JUMP JUMPDEST DUP1 PUSH4 0x53A2C19A EQ PUSH2 0x1F5 JUMPI DUP1 PUSH4 0x565429DE EQ PUSH2 0x220 JUMPI DUP1 PUSH4 0x5F1B0FD8 EQ PUSH2 0x24B JUMPI DUP1 PUSH4 0x6E04FF0D EQ PUSH2 0x276 JUMPI PUSH2 0xE8 JUMP JUMPDEST DUP1 PUSH4 0x2CFCC539 GT PUSH2 0xC6 JUMPI DUP1 PUSH4 0x2CFCC539 EQ PUSH2 0x16C JUMPI DUP1 PUSH4 0x320229EB EQ PUSH2 0x176 JUMPI DUP1 PUSH4 0x4585E33B EQ PUSH2 0x1A1 JUMPI DUP1 PUSH4 0x473F1DDC EQ PUSH2 0x1CA JUMPI PUSH2 0xE8 JUMP JUMPDEST DUP1 PUSH4 0x9BC33A7 EQ PUSH2 0xED JUMPI DUP1 PUSH4 0x115CBAF5 EQ PUSH2 0x118 JUMPI DUP1 PUSH4 0x1FE543E3 EQ PUSH2 0x143 JUMPI JUMPDEST PUSH1 0x0 DUP1 REVERT JUMPDEST CALLVALUE DUP1 ISZERO PUSH2 0xF9 JUMPI PUSH1 0x0 DUP1 REVERT JUMPDEST POP PUSH2 0x102 PUSH2 0x372 JUMP JUMPDEST PUSH1 0x40 MLOAD PUSH2 0x10F SWAP2 SWAP1 PUSH2 0x1215 JUMP JUMPDEST PUSH1 0x40 MLOAD DUP1 SWAP2 SUB SWAP1 RETURN JUMPDEST CALLVALUE DUP1 ISZERO PUSH2 0x124 JUMPI PUSH1 0x0 DUP1 REVERT JUMPDEST POP PUSH2 0x12D PUSH2 0x39A JUMP JUMPDEST PUSH1 0x40 MLOAD PUSH2 0x13A SWAP2 SWAP1 PUSH2 0x11DA JUMP JUMPDEST PUSH1 0x40 MLOAD DUP1 SWAP2 SUB SWAP1 RETURN JUMPDEST CALLVALUE DUP1 ISZERO PUSH2 0x14F JUMPI PUSH1 0x0 DUP1 REVERT JUMPDEST POP PUSH2 0x16A PUSH1 0x4 DUP1 CALLDATASIZE SUB DUP2 ADD SWAP1 PUSH2 0x165 SWAP2 SWAP1 PUSH2 0xFAB JUMP JUMPDEST PUSH2 0x3B1 JUMP JUMPDEST STOP JUMPDEST PUSH2 0x174 PUSH2 0x471 JUMP JUMPDEST STOP JUMPDEST CALLVALUE DUP1 ISZERO PUSH2 0x182 JUMPI PUSH1 0x0 DUP1 REVERT JUMPDEST POP PUSH2 0x18B PUSH2 0x5E0 JUMP JUMPDEST PUSH1 0x40 MLOAD PUSH2 0x198 SWAP2 SWAP1 PUSH2 0x1215 JUMP JUMPDEST PUSH1 0x40 MLOAD DUP1 SWAP2 SUB SWAP1 RETURN JUMPDEST CALLVALUE DUP1 ISZERO PUSH2 0x1AD JUMPI PUSH1 0x0 DUP1 REVERT JUMPDEST POP PUSH2 0x1C8 PUSH1 0x4 DUP1 CALLDATASIZE SUB DUP2 ADD SWAP1 PUSH2 0x1C3 SWAP2 SWAP1 PUSH2 0xF04 JUMP JUMPDEST PUSH2 0x5EA JUMP JUMPDEST STOP JUMPDEST CALLVALUE DUP1 ISZERO PUSH2 0x1D6 JUMPI PUSH1 0x0 DUP1 REVERT JUMPDEST POP PUSH2 0x1DF PUSH2 0x85D JUMP JUMPDEST PUSH1 0x40 MLOAD PUSH2 0x1EC SWAP2 SWAP1 PUSH2 0x1113 JUMP JUMPDEST PUSH1 0x40 MLOAD DUP1 SWAP2 SUB SWAP1 RETURN JUMPDEST CALLVALUE DUP1 ISZERO PUSH2 0x201 JUMPI PUSH1 0x0 DUP1 REVERT JUMPDEST POP PUSH2 0x20A PUSH2 0x887 JUMP JUMPDEST PUSH1 0x40 MLOAD PUSH2 0x217 SWAP2 SWAP1 PUSH2 0x1215 JUMP JUMPDEST PUSH1 0x40 MLOAD DUP1 SWAP2 SUB SWAP1 RETURN JUMPDEST CALLVALUE DUP1 ISZERO PUSH2 0x22C JUMPI PUSH1 0x0 DUP1 REVERT JUMPDEST POP PUSH2 0x235 PUSH2 0x896 JUMP JUMPDEST PUSH1 0x40 MLOAD PUSH2 0x242 SWAP2 SWAP1 PUSH2 0x1215 JUMP JUMPDEST PUSH1 0x40 MLOAD DUP1 SWAP2 SUB SWAP1 RETURN JUMPDEST CALLVALUE DUP1 ISZERO PUSH2 0x257 JUMPI PUSH1 0x0 DUP1 REVERT JUMPDEST POP PUSH2 0x260 PUSH2 0x8A2 JUMP JUMPDEST PUSH1 0x40 MLOAD PUSH2 0x26D SWAP2 SWAP1 PUSH2 0x1215 JUMP JUMPDEST PUSH1 0x40 MLOAD DUP1 SWAP2 SUB SWAP1 RETURN JUMPDEST CALLVALUE DUP1 ISZERO PUSH2 0x282 JUMPI PUSH1 0x0 DUP1 REVERT JUMPDEST POP PUSH2 0x29D PUSH1 0x4 DUP1 CALLDATASIZE SUB DUP2 ADD SWAP1 PUSH2 0x298 SWAP2 SWAP1 PUSH2 0xF04 JUMP JUMPDEST PUSH2 0x8AF JUMP JUMPDEST PUSH1 0x40 MLOAD PUSH2 0x2AB SWAP3 SWAP2 SWAP1 PUSH2 0x1157 JUMP JUMPDEST PUSH1 0x40 MLOAD DUP1 SWAP2 SUB SWAP1 RETURN JUMPDEST CALLVALUE DUP1 ISZERO PUSH2 0x2C0 JUMPI PUSH1 0x0 DUP1 REVERT JUMPDEST POP PUSH2 0x2C9 PUSH2 0x95E JUMP JUMPDEST PUSH1 0x40 MLOAD PUSH2 0x2D6 SWAP2 SWAP1 PUSH2 0x1215 JUMP JUMPDEST PUSH1 0x40 MLOAD DUP1 SWAP2 SUB SWAP1 RETURN JUMPDEST CALLVALUE DUP1 ISZERO PUSH2 0x2EB JUMPI PUSH1 0x0 DUP1 REVERT JUMPDEST POP PUSH2 0x2F4 PUSH2 0x986 JUMP JUMPDEST PUSH1 0x40 MLOAD PUSH2 0x301 SWAP2 SWAP1 PUSH2 0x1215 JUMP JUMPDEST PUSH1 0x40 MLOAD DUP1 SWAP2 SUB SWAP1 RETURN JUMPDEST CALLVALUE DUP1 ISZERO PUSH2 0x316 JUMPI PUSH1 0x0 DUP1 REVERT JUMPDEST POP PUSH2 0x31F PUSH2 0x9B4 JUMP JUMPDEST PUSH1 0x40 MLOAD PUSH2 0x32C SWAP2 SWAP1 PUSH2 0x1215 JUMP JUMPDEST PUSH1 0x40 MLOAD DUP1 SWAP2 SUB SWAP1 RETURN JUMPDEST CALLVALUE DUP1 ISZERO PUSH2 0x341 JUMPI PUSH1 0x0 DUP1 REVERT JUMPDEST POP PUSH2 0x35C PUSH1 0x4 DUP1 CALLDATASIZE SUB DUP2 ADD SWAP1 PUSH2 0x357 SWAP2 SWAP1 PUSH2 0xF51 JUMP JUMPDEST PUSH2 0x9E6 JUMP JUMPDEST PUSH1 0x40 MLOAD PUSH2 0x369 SWAP2 SWAP1 PUSH2 0x1113 JUMP JUMPDEST PUSH1 0x40 MLOAD DUP1 SWAP2 SUB SWAP1 RETURN JUMPDEST PUSH1 0x0 PUSH32 0x0 SWAP1 POP SWAP1 JUMP JUMPDEST PUSH1 0x0 PUSH1 0x1 PUSH1 0x14 SWAP1 SLOAD SWAP1 PUSH2 0x100 EXP SWAP1 DIV PUSH1 0xFF AND SWAP1 POP SWAP1 JUMP JUMPDEST PUSH32 0x0 PUSH20 0xFFFFFFFFFFFFFFFFFFFFFFFFFFFFFFFFFFFFFFFF AND CALLER PUSH20 0xFFFFFFFFFFFFFFFFFFFFFFFFFFFFFFFFFFFFFFFF AND EQ PUSH2 0x463 JUMPI CALLER PUSH32 0x0 PUSH1 0x40 MLOAD PUSH32 0x1CF993F400000000000000000000000000000000000000000000000000000000 DUP2 MSTORE PUSH1 0x4 ADD PUSH2 0x45A SWAP3 SWAP2 SWAP1 PUSH2 0x112E JUMP JUMPDEST PUSH1 0x40 MLOAD DUP1 SWAP2 SUB SWAP1 REVERT JUMPDEST PUSH2 0x46D DUP3 DUP3 PUSH2 0xA2D JUMP JUMPDEST POP POP JUMP JUMPDEST PUSH32 0x0 CALLVALUE LT ISZERO PUSH2 0x4CB JUMPI PUSH1 0x40 MLOAD PUSH32 0xBD4E069500000000000000000000000000000000000000000000000000000000 DUP2 MSTORE PUSH1 0x4 ADD PUSH1 0x40 MLOAD DUP1 SWAP2 SUB SWAP1 REVERT JUMPDEST PUSH1 0x0 PUSH1 0x1 DUP2 GT ISZERO PUSH2 0x4DF JUMPI PUSH2 0x4DE PUSH2 0x14E0 JUMP JUMPDEST JUMPDEST PUSH1 0x1 PUSH1 0x14 SWAP1 SLOAD SWAP1 PUSH2 0x100 EXP SWAP1 DIV PUSH1 0xFF AND PUSH1 0x1 DUP2 GT ISZERO PUSH2 0x501 JUMPI PUSH2 0x500 PUSH2 0x14E0 JUMP JUMPDEST JUMPDEST EQ PUSH2 0x538 JUMPI PUSH1 0x40 MLOAD PUSH32 0xD24A271400000000000000000000000000000000000000000000000000000000 DUP2 MSTORE PUSH1 0x4 ADD PUSH1 0x40 MLOAD DUP1 SWAP2 SUB SWAP1 REVERT JUMPDEST PUSH1 0x0 CALLER SWAP1 DUP1 PUSH1 0x1 DUP2 SLOAD ADD DUP1 DUP3 SSTORE DUP1 SWAP2 POP POP PUSH1 0x1 SWAP1 SUB SWAP1 PUSH1 0x0 MSTORE PUSH1 0x20 PUSH1 0x0 KECCAK256 ADD PUSH1 0x0 SWAP1 SWAP2 SWAP1 SWAP2 SWAP1 SWAP2 PUSH2 0x100 EXP DUP2 SLOAD DUP2 PUSH20 0xFFFFFFFFFFFFFFFFFFFFFFFFFFFFFFFFFFFFFFFF MUL NOT AND SWAP1 DUP4 PUSH20 0xFFFFFFFFFFFFFFFFFFFFFFFFFFFFFFFFFFFFFFFF AND MUL OR SWAP1 SSTORE POP CALLER PUSH20 0xFFFFFFFFFFFFFFFFFFFFFFFFFFFFFFFFFFFFFFFF AND PUSH32 0x805E1D667BDDB8A95F0F09880CF94F403FB596CE79928D9F29B74203BA284D4 PUSH1 0x40 MLOAD PUSH1 0x40 MLOAD DUP1 SWAP2 SUB SWAP1 LOG2 JUMP JUMPDEST PUSH1 0x0 PUSH1 0x2 SLOAD SWAP1 POP SWAP1 JUMP JUMPDEST PUSH1 0x0 ADDRESS PUSH20 0xFFFFFFFFFFFFFFFFFFFFFFFFFFFFFFFFFFFFFFFF AND PUSH4 0x6E04FF0D PUSH1 0x40 MLOAD DUP2 PUSH4 0xFFFFFFFF AND PUSH1 0xE0 SHL DUP2 MSTORE PUSH1 0x4 ADD PUSH2 0x623 SWAP1 PUSH2 0x11F5 JUMP JUMPDEST PUSH1 0x0 PUSH1 0x40 MLOAD DUP1 DUP4 SUB DUP2 DUP7 DUP1 EXTCODESIZE ISZERO DUP1 ISZERO PUSH2 0x63B JUMPI PUSH1 0x0 DUP1 REVERT JUMPDEST POP GAS STATICCALL ISZERO DUP1 ISZERO PUSH2 0x64F JUMPI RETURNDATASIZE PUSH1 0x0 DUP1 RETURNDATACOPY RETURNDATASIZE PUSH1 0x0 REVERT JUMPDEST POP POP POP POP PUSH1 0x40 MLOAD RETURNDATASIZE PUSH1 0x0 DUP3 RETURNDATACOPY RETURNDATASIZE PUSH1 0x1F NOT PUSH1 0x1F DUP3 ADD AND DUP3 ADD DUP1 PUSH1 0x40 MSTORE POP DUP2 ADD SWAP1 PUSH2 0x678 SWAP2 SWAP1 PUSH2 0xEA8 JUMP JUMPDEST POP SWAP1 POP DUP1 PUSH2 0x6E7 JUMPI SELFBALANCE PUSH1 0x0 DUP1 SLOAD SWAP1 POP PUSH1 0x1 PUSH1 0x14 SWAP1 SLOAD SWAP1 PUSH2 0x100 EXP SWAP1 DIV PUSH1 0xFF AND PUSH1 0x1 DUP2 GT ISZERO PUSH2 0x6A9 JUMPI PUSH2 0x6A8 PUSH2 0x14E0 JUMP JUMPDEST JUMPDEST PUSH1 0x40 MLOAD PUSH32 0x584327AA00000000000000000000000000000000000000000000000000000000 DUP2 MSTORE PUSH1 0x4 ADD PUSH2 0x6DE SWAP4 SWAP3 SWAP2 SWAP1 PUSH2 0x1230 JUMP JUMPDEST PUSH1 0x40 MLOAD DUP1 SWAP2 SUB SWAP1 REVERT JUMPDEST PUSH1 0x1 DUP1 PUSH1 0x14 PUSH2 0x100 EXP DUP2 SLOAD DUP2 PUSH1 0xFF MUL NOT AND SWAP1 DUP4 PUSH1 0x1 DUP2 GT ISZERO PUSH2 0x70C JUMPI PUSH2 0x70B PUSH2 0x14E0 JUMP JUMPDEST JUMPDEST MUL OR SWAP1 SSTORE POP PUSH1 0x0 PUSH32 0x0 PUSH20 0xFFFFFFFFFFFFFFFFFFFFFFFFFFFFFFFFFFFFFFFF AND PUSH4 0x5D3B1D30 PUSH32 0x0 PUSH32 0x0 PUSH1 0x3 PUSH32 0x0 PUSH1 0x1 PUSH1 0x40 MLOAD DUP7 PUSH4 0xFFFFFFFF AND PUSH1 0xE0 SHL DUP2 MSTORE PUSH1 0x4 ADD PUSH2 0x7D6 SWAP6 SWAP5 SWAP4 SWAP3 SWAP2 SWAP1 PUSH2 0x1187 JUMP JUMPDEST PUSH1 0x20 PUSH1 0x40 MLOAD DUP1 DUP4 SUB DUP2 PUSH1 0x0 DUP8 DUP1 EXTCODESIZE ISZERO DUP1 ISZERO PUSH2 0x7F0 JUMPI PUSH1 0x0 DUP1 REVERT JUMPDEST POP GAS CALL ISZERO DUP1 ISZERO PUSH2 0x804 JUMPI RETURNDATASIZE PUSH1 0x0 DUP1 RETURNDATACOPY RETURNDATASIZE PUSH1 0x0 REVERT JUMPDEST POP POP POP POP PUSH1 0x40 MLOAD RETURNDATASIZE PUSH1 0x1F NOT PUSH1 0x1F DUP3 ADD AND DUP3 ADD DUP1 PUSH1 0x40 MSTORE POP DUP2 ADD SWAP1 PUSH2 0x828 SWAP2 SWAP1 PUSH2 0xF7E JUMP JUMPDEST SWAP1 POP DUP1 PUSH32 0xDE6349B018D6C03D837B67D9A198A6BA4842546F2295FE963FAE141E5DBAEF81 PUSH1 0x40 MLOAD PUSH1 0x40 MLOAD DUP1 SWAP2 SUB SWAP1 LOG2 POP POP POP POP JUMP JUMPDEST PUSH1 0x0 PUSH1 0x1 PUSH1 0x0 SWAP1 SLOAD SWAP1 PUSH2 0x100 EXP SWAP1 DIV PUSH20 0xFFFFFFFFFFFFFFFFFFFFFFFFFFFFFFFFFFFFFFFF AND SWAP1 POP SWAP1 JUMP JUMPDEST PUSH1 0x0 PUSH1 0x1 PUSH4 0xFFFFFFFF AND SWAP1 POP SWAP1 JUMP JUMPDEST PUSH1 0x0 DUP1 DUP1 SLOAD SWAP1 POP SWAP1 POP SWAP1 JUMP JUMPDEST PUSH1 0x0 PUSH1 0x3 PUSH2 0xFFFF AND SWAP1 POP SWAP1 JUMP JUMPDEST PUSH1 0x0 PUSH1 0x60 PUSH1 0x0 PUSH1 0x1 PUSH1 0x14 SWAP1 SLOAD SWAP1 PUSH2 0x100 EXP SWAP1 DIV PUSH1 0xFF AND PUSH1 0x1 DUP2 GT ISZERO PUSH2 0x8D7 JUMPI PUSH2 0x8D6 PUSH2 0x14E0 JUMP JUMPDEST JUMPDEST PUSH1 0x0 PUSH1 0x1 DUP2 GT ISZERO PUSH2 0x8EB JUMPI PUSH2 0x8EA PUSH2 0x14E0 JUMP JUMPDEST JUMPDEST EQ SWAP1 POP PUSH1 0x0 PUSH32 0x0 PUSH1 0x2 SLOAD TIMESTAMP PUSH2 0x91F SWAP2 SWAP1 PUSH2 0x1310 JUMP JUMPDEST GT SWAP1 POP PUSH1 0x0 DUP1 PUSH1 0x0 DUP1 SLOAD SWAP1 POP GT SWAP1 POP PUSH1 0x0 DUP1 SELFBALANCE GT SWAP1 POP DUP4 DUP1 ISZERO PUSH2 0x93F JUMPI POP DUP3 JUMPDEST DUP1 ISZERO PUSH2 0x948 JUMPI POP DUP2 JUMPDEST DUP1 ISZERO PUSH2 0x951 JUMPI POP DUP1 JUMPDEST SWAP6 POP POP POP POP POP SWAP3 POP SWAP3 SWAP1 POP JUMP JUMPDEST PUSH1 0x0 PUSH32 0x0 SWAP1 POP SWAP1 JUMP JUMPDEST PUSH1 0x0 PUSH32 0x0 PUSH4 0xFFFFFFFF AND SWAP1 POP SWAP1 JUMP JUMPDEST PUSH1 0x0 PUSH32 0x0 PUSH8 0xFFFFFFFFFFFFFFFF AND SWAP1 POP SWAP1 JUMP JUMPDEST PUSH1 0x0 DUP1 DUP3 DUP2 SLOAD DUP2 LT PUSH2 0x9FB JUMPI PUSH2 0x9FA PUSH2 0x150F JUMP JUMPDEST JUMPDEST SWAP1 PUSH1 0x0 MSTORE PUSH1 0x20 PUSH1 0x0 KECCAK256 ADD PUSH1 0x0 SWAP1 SLOAD SWAP1 PUSH2 0x100 EXP SWAP1 DIV PUSH20 0xFFFFFFFFFFFFFFFFFFFFFFFFFFFFFFFFFFFFFFFF AND SWAP1 POP SWAP2 SWAP1 POP JUMP JUMPDEST PUSH1 0x0 DUP1 DUP1 SLOAD SWAP1 POP DUP3 PUSH1 0x0 DUP2 MLOAD DUP2 LT PUSH2 0xA48 JUMPI PUSH2 0xA47 PUSH2 0x150F JUMP JUMPDEST JUMPDEST PUSH1 0x20 MUL PUSH1 0x20 ADD ADD MLOAD PUSH2 0xA5A SWAP2 SWAP1 PUSH2 0x1451 JUMP JUMPDEST SWAP1 POP PUSH1 0x0 DUP1 DUP3 DUP2 SLOAD DUP2 LT PUSH2 0xA71 JUMPI PUSH2 0xA70 PUSH2 0x150F JUMP JUMPDEST JUMPDEST SWAP1 PUSH1 0x0 MSTORE PUSH1 0x20 PUSH1 0x0 KECCAK256 ADD PUSH1 0x0 SWAP1 SLOAD SWAP1 PUSH2 0x100 EXP SWAP1 DIV PUSH20 0xFFFFFFFFFFFFFFFFFFFFFFFFFFFFFFFFFFFFFFFF AND SWAP1 POP DUP1 PUSH1 0x1 PUSH1 0x0 PUSH2 0x100 EXP DUP2 SLOAD DUP2 PUSH20 0xFFFFFFFFFFFFFFFFFFFFFFFFFFFFFFFFFFFFFFFF MUL NOT AND SWAP1 DUP4 PUSH20 0xFFFFFFFFFFFFFFFFFFFFFFFFFFFFFFFFFFFFFFFF AND MUL OR SWAP1 SSTORE POP PUSH1 0x0 PUSH1 0x1 PUSH1 0x14 PUSH2 0x100 EXP DUP2 SLOAD DUP2 PUSH1 0xFF MUL NOT AND SWAP1 DUP4 PUSH1 0x1 DUP2 GT ISZERO PUSH2 0xB05 JUMPI PUSH2 0xB04 PUSH2 0x14E0 JUMP JUMPDEST JUMPDEST MUL OR SWAP1 SSTORE POP PUSH1 0x0 PUSH8 0xFFFFFFFFFFFFFFFF DUP2 GT ISZERO PUSH2 0xB25 JUMPI PUSH2 0xB24 PUSH2 0x153E JUMP JUMPDEST JUMPDEST PUSH1 0x40 MLOAD SWAP1 DUP1 DUP3 MSTORE DUP1 PUSH1 0x20 MUL PUSH1 0x20 ADD DUP3 ADD PUSH1 0x40 MSTORE DUP1 ISZERO PUSH2 0xB53 JUMPI DUP2 PUSH1 0x20 ADD PUSH1 0x20 DUP3 MUL DUP1 CALLDATASIZE DUP4 CALLDATACOPY DUP1 DUP3 ADD SWAP2 POP POP SWAP1 POP JUMPDEST POP PUSH1 0x0 SWAP1 DUP1 MLOAD SWAP1 PUSH1 0x20 ADD SWAP1 PUSH2 0xB69 SWAP3 SWAP2 SWAP1 PUSH2 0xC5E JUMP JUMPDEST POP TIMESTAMP PUSH1 0x2 DUP2 SWAP1 SSTORE POP PUSH1 0x0 DUP2 PUSH20 0xFFFFFFFFFFFFFFFFFFFFFFFFFFFFFFFFFFFFFFFF AND SELFBALANCE PUSH1 0x40 MLOAD PUSH2 0xB97 SWAP1 PUSH2 0x10FE JUMP JUMPDEST PUSH1 0x0 PUSH1 0x40 MLOAD DUP1 DUP4 SUB DUP2 DUP6 DUP8 GAS CALL SWAP3 POP POP POP RETURNDATASIZE DUP1 PUSH1 0x0 DUP2 EQ PUSH2 0xBD4 JUMPI PUSH1 0x40 MLOAD SWAP2 POP PUSH1 0x1F NOT PUSH1 0x3F RETURNDATASIZE ADD AND DUP3 ADD PUSH1 0x40 MSTORE RETURNDATASIZE DUP3 MSTORE RETURNDATASIZE PUSH1 0x0 PUSH1 0x20 DUP5 ADD RETURNDATACOPY PUSH2 0xBD9 JUMP JUMPDEST PUSH1 0x60 SWAP2 POP JUMPDEST POP POP SWAP1 POP DUP1 PUSH2 0xC14 JUMPI PUSH1 0x40 MLOAD PUSH32 0xA1D04B3900000000000000000000000000000000000000000000000000000000 DUP2 MSTORE PUSH1 0x4 ADD PUSH1 0x40 MLOAD DUP1 SWAP2 SUB SWAP1 REVERT JUMPDEST DUP2 PUSH20 0xFFFFFFFFFFFFFFFFFFFFFFFFFFFFFFFFFFFFFFFF AND PUSH32 0x5B690EC4A06FE979403046EAEEA5B3CE38524683C3001F662C8B5A829632F7DF PUSH1 0x40 MLOAD PUSH1 0x40 MLOAD DUP1 SWAP2 SUB SWAP1 LOG2 POP POP POP POP POP JUMP JUMPDEST DUP3 DUP1 SLOAD DUP3 DUP3 SSTORE SWAP1 PUSH1 0x0 MSTORE PUSH1 0x20 PUSH1 0x0 KECCAK256 SWAP1 DUP2 ADD SWAP3 DUP3 ISZERO PUSH2 0xCD7 JUMPI SWAP2 PUSH1 0x20 MUL DUP3 ADD JUMPDEST DUP3 DUP2 GT ISZERO PUSH2 0xCD6 JUMPI DUP3 MLOAD DUP3 PUSH1 0x0 PUSH2 0x100 EXP DUP2 SLOAD DUP2 PUSH20 0xFFFFFFFFFFFFFFFFFFFFFFFFFFFFFFFFFFFFFFFF MUL NOT AND SWAP1 DUP4 PUSH20 0xFFFFFFFFFFFFFFFFFFFFFFFFFFFFFFFFFFFFFFFF AND MUL OR SWAP1 SSTORE POP SWAP2 PUSH1 0x20 ADD SWAP2 SWAP1 PUSH1 0x1 ADD SWAP1 PUSH2 0xC7E JUMP JUMPDEST JUMPDEST POP SWAP1 POP PUSH2 0xCE4 SWAP2 SWAP1 PUSH2 0xCE8 JUMP JUMPDEST POP SWAP1 JUMP JUMPDEST JUMPDEST DUP1 DUP3 GT ISZERO PUSH2 0xD01 JUMPI PUSH1 0x0 DUP2 PUSH1 0x0 SWAP1 SSTORE POP PUSH1 0x1 ADD PUSH2 0xCE9 JUMP JUMPDEST POP SWAP1 JUMP JUMPDEST PUSH1 0x0 PUSH2 0xD18 PUSH2 0xD13 DUP5 PUSH2 0x128C JUMP JUMPDEST PUSH2 0x1267 JUMP JUMPDEST SWAP1 POP DUP1 DUP4 DUP3 MSTORE PUSH1 0x20 DUP3 ADD SWAP1 POP DUP3 DUP6 PUSH1 0x20 DUP7 MUL DUP3 ADD GT ISZERO PUSH2 0xD3B JUMPI PUSH2 0xD3A PUSH2 0x1577 JUMP JUMPDEST JUMPDEST PUSH1 0x0 JUMPDEST DUP6 DUP2 LT ISZERO PUSH2 0xD6B JUMPI DUP2 PUSH2 0xD51 DUP9 DUP3 PUSH2 0xE7E JUMP JUMPDEST DUP5 MSTORE PUSH1 0x20 DUP5 ADD SWAP4 POP PUSH1 0x20 DUP4 ADD SWAP3 POP POP PUSH1 0x1 DUP2 ADD SWAP1 POP PUSH2 0xD3E JUMP JUMPDEST POP POP POP SWAP4 SWAP3 POP POP POP JUMP JUMPDEST PUSH1 0x0 PUSH2 0xD88 PUSH2 0xD83 DUP5 PUSH2 0x12B8 JUMP JUMPDEST PUSH2 0x1267 JUMP JUMPDEST SWAP1 POP DUP3 DUP2 MSTORE PUSH1 0x20 DUP2 ADD DUP5 DUP5 DUP5 ADD GT ISZERO PUSH2 0xDA4 JUMPI PUSH2 0xDA3 PUSH2 0x157C JUMP JUMPDEST JUMPDEST PUSH2 0xDAF DUP5 DUP3 DUP6 PUSH2 0x13ED JUMP JUMPDEST POP SWAP4 SWAP3 POP POP POP JUMP JUMPDEST PUSH1 0x0 DUP3 PUSH1 0x1F DUP4 ADD SLT PUSH2 0xDCC JUMPI PUSH2 0xDCB PUSH2 0x1572 JUMP JUMPDEST JUMPDEST DUP2 CALLDATALOAD PUSH2 0xDDC DUP5 DUP3 PUSH1 0x20 DUP7 ADD PUSH2 0xD05 JUMP JUMPDEST SWAP2 POP POP SWAP3 SWAP2 POP POP JUMP JUMPDEST PUSH1 0x0 DUP2 MLOAD SWAP1 POP PUSH2 0xDF4 DUP2 PUSH2 0x15B3 JUMP JUMPDEST SWAP3 SWAP2 POP POP JUMP JUMPDEST PUSH1 0x0 DUP1 DUP4 PUSH1 0x1F DUP5 ADD SLT PUSH2 0xE10 JUMPI PUSH2 0xE0F PUSH2 0x1572 JUMP JUMPDEST JUMPDEST DUP3 CALLDATALOAD SWAP1 POP PUSH8 0xFFFFFFFFFFFFFFFF DUP2 GT ISZERO PUSH2 0xE2D JUMPI PUSH2 0xE2C PUSH2 0x156D JUMP JUMPDEST JUMPDEST PUSH1 0x20 DUP4 ADD SWAP2 POP DUP4 PUSH1 0x1 DUP3 MUL DUP4 ADD GT ISZERO PUSH2 0xE49 JUMPI PUSH2 0xE48 PUSH2 0x1577 JUMP JUMPDEST JUMPDEST SWAP3 POP SWAP3 SWAP1 POP JUMP JUMPDEST PUSH1 0x0 DUP3 PUSH1 0x1F DUP4 ADD SLT PUSH2 0xE65 JUMPI PUSH2 0xE64 PUSH2 0x1572 JUMP JUMPDEST JUMPDEST DUP2 MLOAD PUSH2 0xE75 DUP5 DUP3 PUSH1 0x20 DUP7 ADD PUSH2 0xD75 JUMP JUMPDEST SWAP2 POP POP SWAP3 SWAP2 POP POP JUMP JUMPDEST PUSH1 0x0 DUP2 CALLDATALOAD SWAP1 POP PUSH2 0xE8D DUP2 PUSH2 0x15CA JUMP JUMPDEST SWAP3 SWAP2 POP POP JUMP JUMPDEST PUSH1 0x0 DUP2 MLOAD SWAP1 POP PUSH2 0xEA2 DUP2 PUSH2 0x15CA JUMP JUMPDEST SWAP3 SWAP2 POP POP JUMP JUMPDEST PUSH1 0x0 DUP1 PUSH1 0x40 DUP4 DUP6 SUB SLT ISZERO PUSH2 0xEBF JUMPI PUSH2 0xEBE PUSH2 0x1586 JUMP JUMPDEST JUMPDEST PUSH1 0x0 PUSH2 0xECD DUP6 DUP3 DUP7 ADD PUSH2 0xDE5 JUMP JUMPDEST SWAP3 POP POP PUSH1 0x20 DUP4 ADD MLOAD PUSH8 0xFFFFFFFFFFFFFFFF DUP2 GT ISZERO PUSH2 0xEEE JUMPI PUSH2 0xEED PUSH2 0x1581 JUMP JUMPDEST JUMPDEST PUSH2 0xEFA DUP6 DUP3 DUP7 ADD PUSH2 0xE50 JUMP JUMPDEST SWAP2 POP POP SWAP3 POP SWAP3 SWAP1 POP JUMP JUMPDEST PUSH1 0x0 DUP1 PUSH1 0x20 DUP4 DUP6 SUB SLT ISZERO PUSH2 0xF1B JUMPI PUSH2 0xF1A PUSH2 0x1586 JUMP JUMPDEST JUMPDEST PUSH1 0x0 DUP4 ADD CALLDATALOAD PUSH8 0xFFFFFFFFFFFFFFFF DUP2 GT ISZERO PUSH2 0xF39 JUMPI PUSH2 0xF38 PUSH2 0x1581 JUMP JUMPDEST JUMPDEST PUSH2 0xF45 DUP6 DUP3 DUP7 ADD PUSH2 0xDFA JUMP JUMPDEST SWAP3 POP SWAP3 POP POP SWAP3 POP SWAP3 SWAP1 POP JUMP JUMPDEST PUSH1 0x0 PUSH1 0x20 DUP3 DUP5 SUB SLT ISZERO PUSH2 0xF67 JUMPI PUSH2 0xF66 PUSH2 0x1586 JUMP JUMPDEST JUMPDEST PUSH1 0x0 PUSH2 0xF75 DUP5 DUP3 DUP6 ADD PUSH2 0xE7E JUMP JUMPDEST SWAP2 POP POP SWAP3 SWAP2 POP POP JUMP JUMPDEST PUSH1 0x0 PUSH1 0x20 DUP3 DUP5 SUB SLT ISZERO PUSH2 0xF94 JUMPI PUSH2 0xF93 PUSH2 0x1586 JUMP JUMPDEST JUMPDEST PUSH1 0x0 PUSH2 0xFA2 DUP5 DUP3 DUP6 ADD PUSH2 0xE93 JUMP JUMPDEST SWAP2 POP POP SWAP3 SWAP2 POP POP JUMP JUMPDEST PUSH1 0x0 DUP1 PUSH1 0x40 DUP4 DUP6 SUB SLT ISZERO PUSH2 0xFC2 JUMPI PUSH2 0xFC1 PUSH2 0x1586 JUMP JUMPDEST JUMPDEST PUSH1 0x0 PUSH2 0xFD0 DUP6 DUP3 DUP7 ADD PUSH2 0xE7E JUMP JUMPDEST SWAP3 POP POP PUSH1 0x20 DUP4 ADD CALLDATALOAD PUSH8 0xFFFFFFFFFFFFFFFF DUP2 GT ISZERO PUSH2 0xFF1 JUMPI PUSH2 0xFF0 PUSH2 0x1581 JUMP JUMPDEST JUMPDEST PUSH2 0xFFD DUP6 DUP3 DUP7 ADD PUSH2 0xDB7 JUMP JUMPDEST SWAP2 POP POP SWAP3 POP SWAP3 SWAP1 POP JUMP JUMPDEST PUSH2 0x1010 DUP2 PUSH2 0x1344 JUMP JUMPDEST DUP3 MSTORE POP POP JUMP JUMPDEST PUSH2 0x101F DUP2 PUSH2 0x1356 JUMP JUMPDEST DUP3 MSTORE POP POP JUMP JUMPDEST PUSH2 0x102E DUP2 PUSH2 0x1362 JUMP JUMPDEST DUP3 MSTORE POP POP JUMP JUMPDEST PUSH1 0x0 PUSH2 0x103F DUP3 PUSH2 0x12E9 JUMP JUMPDEST PUSH2 0x1049 DUP2 DUP6 PUSH2 0x12F4 JUMP JUMPDEST SWAP4 POP PUSH2 0x1059 DUP2 DUP6 PUSH1 0x20 DUP7 ADD PUSH2 0x13ED JUMP JUMPDEST PUSH2 0x1062 DUP2 PUSH2 0x158B JUMP JUMPDEST DUP5 ADD SWAP2 POP POP SWAP3 SWAP2 POP POP JUMP JUMPDEST PUSH2 0x1076 DUP2 PUSH2 0x13DB JUMP JUMPDEST DUP3 MSTORE POP POP JUMP JUMPDEST PUSH1 0x0 PUSH2 0x1089 PUSH1 0x0 DUP4 PUSH2 0x12F4 JUMP JUMPDEST SWAP2 POP PUSH2 0x1094 DUP3 PUSH2 0x159C JUMP JUMPDEST PUSH1 0x0 DUP3 ADD SWAP1 POP SWAP2 SWAP1 POP JUMP JUMPDEST PUSH1 0x0 PUSH2 0x10AC PUSH1 0x0 DUP4 PUSH2 0x1305 JUMP JUMPDEST SWAP2 POP PUSH2 0x10B7 DUP3 PUSH2 0x159C JUMP JUMPDEST PUSH1 0x0 DUP3 ADD SWAP1 POP SWAP2 SWAP1 POP JUMP JUMPDEST PUSH2 0x10CB DUP2 PUSH2 0x137F JUMP JUMPDEST DUP3 MSTORE POP POP JUMP JUMPDEST PUSH2 0x10DA DUP2 PUSH2 0x13AD JUMP JUMPDEST DUP3 MSTORE POP POP JUMP JUMPDEST PUSH2 0x10E9 DUP2 PUSH2 0x13B7 JUMP JUMPDEST DUP3 MSTORE POP POP JUMP JUMPDEST PUSH2 0x10F8 DUP2 PUSH2 0x13C7 JUMP JUMPDEST DUP3 MSTORE POP POP JUMP JUMPDEST PUSH1 0x0 PUSH2 0x1109 DUP3 PUSH2 0x109F JUMP JUMPDEST SWAP2 POP DUP2 SWAP1 POP SWAP2 SWAP1 POP JUMP JUMPDEST PUSH1 0x0 PUSH1 0x20 DUP3 ADD SWAP1 POP PUSH2 0x1128 PUSH1 0x0 DUP4 ADD DUP5 PUSH2 0x1007 JUMP JUMPDEST SWAP3 SWAP2 POP POP JUMP JUMPDEST PUSH1 0x0 PUSH1 0x40 DUP3 ADD SWAP1 POP PUSH2 0x1143 PUSH1 0x0 DUP4 ADD DUP6 PUSH2 0x1007 JUMP JUMPDEST PUSH2 0x1150 PUSH1 0x20 DUP4 ADD DUP5 PUSH2 0x1007 JUMP JUMPDEST SWAP4 SWAP3 POP POP POP JUMP JUMPDEST PUSH1 0x0 PUSH1 0x40 DUP3 ADD SWAP1 POP PUSH2 0x116C PUSH1 0x0 DUP4 ADD DUP6 PUSH2 0x1016 JUMP JUMPDEST DUP2 DUP2 SUB PUSH1 0x20 DUP4 ADD MSTORE PUSH2 0x117E DUP2 DUP5 PUSH2 0x1034 JUMP JUMPDEST SWAP1 POP SWAP4 SWAP3 POP POP POP JUMP JUMPDEST PUSH1 0x0 PUSH1 0xA0 DUP3 ADD SWAP1 POP PUSH2 0x119C PUSH1 0x0 DUP4 ADD DUP9 PUSH2 0x1025 JUMP JUMPDEST PUSH2 0x11A9 PUSH1 0x20 DUP4 ADD DUP8 PUSH2 0x10EF JUMP JUMPDEST PUSH2 0x11B6 PUSH1 0x40 DUP4 ADD DUP7 PUSH2 0x10C2 JUMP JUMPDEST PUSH2 0x11C3 PUSH1 0x60 DUP4 ADD DUP6 PUSH2 0x10E0 JUMP JUMPDEST PUSH2 0x11D0 PUSH1 0x80 DUP4 ADD DUP5 PUSH2 0x10E0 JUMP JUMPDEST SWAP7 SWAP6 POP POP POP POP POP POP JUMP JUMPDEST PUSH1 0x0 PUSH1 0x20 DUP3 ADD SWAP1 POP PUSH2 0x11EF PUSH1 0x0 DUP4 ADD DUP5 PUSH2 0x106D JUMP JUMPDEST SWAP3 SWAP2 POP POP JUMP JUMPDEST PUSH1 0x0 PUSH1 0x20 DUP3 ADD SWAP1 POP DUP2 DUP2 SUB PUSH1 0x0 DUP4 ADD MSTORE PUSH2 0x120E DUP2 PUSH2 0x107C JUMP JUMPDEST SWAP1 POP SWAP2 SWAP1 POP JUMP JUMPDEST PUSH1 0x0 PUSH1 0x20 DUP3 ADD SWAP1 POP PUSH2 0x122A PUSH1 0x0 DUP4 ADD DUP5 PUSH2 0x10D1 JUMP JUMPDEST SWAP3 SWAP2 POP POP JUMP JUMPDEST PUSH1 0x0 PUSH1 0x60 DUP3 ADD SWAP1 POP PUSH2 0x1245 PUSH1 0x0 DUP4 ADD DUP7 PUSH2 0x10D1 JUMP JUMPDEST PUSH2 0x1252 PUSH1 0x20 DUP4 ADD DUP6 PUSH2 0x10D1 JUMP JUMPDEST PUSH2 0x125F PUSH1 0x40 DUP4 ADD DUP5 PUSH2 0x10D1 JUMP JUMPDEST SWAP5 SWAP4 POP POP POP POP JUMP JUMPDEST PUSH1 0x0 PUSH2 0x1271 PUSH2 0x1282 JUMP JUMPDEST SWAP1 POP PUSH2 0x127D DUP3 DUP3 PUSH2 0x1420 JUMP JUMPDEST SWAP2 SWAP1 POP JUMP JUMPDEST PUSH1 0x0 PUSH1 0x40 MLOAD SWAP1 POP SWAP1 JUMP JUMPDEST PUSH1 0x0 PUSH8 0xFFFFFFFFFFFFFFFF DUP3 GT ISZERO PUSH2 0x12A7 JUMPI PUSH2 0x12A6 PUSH2 0x153E JUMP JUMPDEST JUMPDEST PUSH1 0x20 DUP3 MUL SWAP1 POP PUSH1 0x20 DUP2 ADD SWAP1 POP SWAP2 SWAP1 POP JUMP JUMPDEST PUSH1 0x0 PUSH8 0xFFFFFFFFFFFFFFFF DUP3 GT ISZERO PUSH2 0x12D3 JUMPI PUSH2 0x12D2 PUSH2 0x153E JUMP JUMPDEST JUMPDEST PUSH2 0x12DC DUP3 PUSH2 0x158B JUMP JUMPDEST SWAP1 POP PUSH1 0x20 DUP2 ADD SWAP1 POP SWAP2 SWAP1 POP JUMP JUMPDEST PUSH1 0x0 DUP2 MLOAD SWAP1 POP SWAP2 SWAP1 POP JUMP JUMPDEST PUSH1 0x0 DUP3 DUP3 MSTORE PUSH1 0x20 DUP3 ADD SWAP1 POP SWAP3 SWAP2 POP POP JUMP JUMPDEST PUSH1 0x0 DUP2 SWAP1 POP SWAP3 SWAP2 POP POP JUMP JUMPDEST PUSH1 0x0 PUSH2 0x131B DUP3 PUSH2 0x13AD JUMP JUMPDEST SWAP2 POP PUSH2 0x1326 DUP4 PUSH2 0x13AD JUMP JUMPDEST SWAP3 POP DUP3 DUP3 LT ISZERO PUSH2 0x1339 JUMPI PUSH2 0x1338 PUSH2 0x1482 JUMP JUMPDEST JUMPDEST DUP3 DUP3 SUB SWAP1 POP SWAP3 SWAP2 POP POP JUMP JUMPDEST PUSH1 0x0 PUSH2 0x134F DUP3 PUSH2 0x138D JUMP JUMPDEST SWAP1 POP SWAP2 SWAP1 POP JUMP JUMPDEST PUSH1 0x0 DUP2 ISZERO ISZERO SWAP1 POP SWAP2 SWAP1 POP JUMP JUMPDEST PUSH1 0x0 DUP2 SWAP1 POP SWAP2 SWAP1 POP JUMP JUMPDEST PUSH1 0x0 DUP2 SWAP1 POP PUSH2 0x137A DUP3 PUSH2 0x159F JUMP JUMPDEST SWAP2 SWAP1 POP JUMP JUMPDEST PUSH1 0x0 PUSH2 0xFFFF DUP3 AND SWAP1 POP SWAP2 SWAP1 POP JUMP JUMPDEST PUSH1 0x0 PUSH20 0xFFFFFFFFFFFFFFFFFFFFFFFFFFFFFFFFFFFFFFFF DUP3 AND SWAP1 POP SWAP2 SWAP1 POP JUMP JUMPDEST PUSH1 0x0 DUP2 SWAP1 POP SWAP2 SWAP1 POP JUMP JUMPDEST PUSH1 0x0 PUSH4 0xFFFFFFFF DUP3 AND SWAP1 POP SWAP2 SWAP1 POP JUMP JUMPDEST PUSH1 0x0 PUSH8 0xFFFFFFFFFFFFFFFF DUP3 AND SWAP1 POP SWAP2 SWAP1 POP JUMP JUMPDEST PUSH1 0x0 PUSH2 0x13E6 DUP3 PUSH2 0x136C JUMP JUMPDEST SWAP1 POP SWAP2 SWAP1 POP JUMP JUMPDEST PUSH1 0x0 JUMPDEST DUP4 DUP2 LT ISZERO PUSH2 0x140B JUMPI DUP1 DUP3 ADD MLOAD DUP2 DUP5 ADD MSTORE PUSH1 0x20 DUP2 ADD SWAP1 POP PUSH2 0x13F0 JUMP JUMPDEST DUP4 DUP2 GT ISZERO PUSH2 0x141A JUMPI PUSH1 0x0 DUP5 DUP5 ADD MSTORE JUMPDEST POP POP POP POP JUMP JUMPDEST PUSH2 0x1429 DUP3 PUSH2 0x158B JUMP JUMPDEST DUP2 ADD DUP2 DUP2 LT PUSH8 0xFFFFFFFFFFFFFFFF DUP3 GT OR ISZERO PUSH2 0x1448 JUMPI PUSH2 0x1447 PUSH2 0x153E JUMP JUMPDEST JUMPDEST DUP1 PUSH1 0x40 MSTORE POP POP POP JUMP JUMPDEST PUSH1 0x0 PUSH2 0x145C DUP3 PUSH2 0x13AD JUMP JUMPDEST SWAP2 POP PUSH2 0x1467 DUP4 PUSH2 0x13AD JUMP JUMPDEST SWAP3 POP DUP3 PUSH2 0x1477 JUMPI PUSH2 0x1476 PUSH2 0x14B1 JUMP JUMPDEST JUMPDEST DUP3 DUP3 MOD SWAP1 POP SWAP3 SWAP2 POP POP JUMP JUMPDEST PUSH32 0x4E487B7100000000000000000000000000000000000000000000000000000000 PUSH1 0x0 MSTORE PUSH1 0x11 PUSH1 0x4 MSTORE PUSH1 0x24 PUSH1 0x0 REVERT JUMPDEST PUSH32 0x4E487B7100000000000000000000000000000000000000000000000000000000 PUSH1 0x0 MSTORE PUSH1 0x12 PUSH1 0x4 MSTORE PUSH1 0x24 PUSH1 0x0 REVERT JUMPDEST PUSH32 0x4E487B7100000000000000000000000000000000000000000000000000000000 PUSH1 0x0 MSTORE PUSH1 0x21 PUSH1 0x4 MSTORE PUSH1 0x24 PUSH1 0x0 REVERT JUMPDEST PUSH32 0x4E487B7100000000000000000000000000000000000000000000000000000000 PUSH1 0x0 MSTORE PUSH1 0x32 PUSH1 0x4 MSTORE PUSH1 0x24 PUSH1 0x0 REVERT JUMPDEST PUSH32 0x4E487B7100000000000000000000000000000000000000000000000000000000 PUSH1 0x0 MSTORE PUSH1 0x41 PUSH1 0x4 MSTORE PUSH1 0x24 PUSH1 0x0 REVERT JUMPDEST PUSH1 0x0 DUP1 REVERT JUMPDEST PUSH1 0x0 DUP1 REVERT JUMPDEST PUSH1 0x0 DUP1 REVERT JUMPDEST PUSH1 0x0 DUP1 REVERT JUMPDEST PUSH1 0x0 DUP1 REVERT JUMPDEST PUSH1 0x0 DUP1 REVERT JUMPDEST PUSH1 0x0 PUSH1 0x1F NOT PUSH1 0x1F DUP4 ADD AND SWAP1 POP SWAP2 SWAP1 POP JUMP JUMPDEST POP JUMP JUMPDEST PUSH1 0x2 DUP2 LT PUSH2 0x15B0 JUMPI PUSH2 0x15AF PUSH2 0x14E0 JUMP JUMPDEST JUMPDEST POP JUMP JUMPDEST PUSH2 0x15BC DUP2 PUSH2 0x1356 JUMP JUMPDEST DUP2 EQ PUSH2 0x15C7 JUMPI PUSH1 0x0 DUP1 REVERT JUMPDEST POP JUMP JUMPDEST PUSH2 0x15D3 DUP2 PUSH2 0x13AD JUMP JUMPDEST DUP2 EQ PUSH2 0x15DE JUMPI PUSH1 0x0 DUP1 REVERT JUMPDEST POP JUMP INVALID LOG2 PUSH5 0x6970667358 0x22 SLT KECCAK256 PUSH5 0xB56FA66B0D 0xDF PUSH1 0xE2 0xE0 0xC7 SWAP15 0xDD 0xF7 DUP13 SWAP5 0xE1 0xE1 0x23 PUSH16 0x36FEFFF231EEA00774D7738564736F6C PUSH4 0x43000807 STOP CALLER "},"gasEstimates":{"creation":{"codeDepositCost":"1131000","executionCost":"infinite","totalCost":"infinite"},"external":{"checkUpkeep(bytes)":"infinite","enterRaffle()":"infinite","getEntranceFee()":"infinite","getInterval()":"infinite","getLatestTimeStamp()":"2482","getNumOfPlayers()":"2490","getNumWords()":"366","getPlayer(uint256)":"5055","getRaffleState()":"2664","getRecentWinner()":"2611","getRequestConfirmations()":"410","getcallbackGasLimit()":"infinite","getsubscriptionId()":"infinite","performUpkeep(bytes)":"infinite","rawFulfillRandomWords(uint256,uint256[])":"infinite"},"internal":{"fulfillRandomWords(uint256,uint256[] memory)":"infinite","parseStringToUint(string memory)":"infinite"}},"methodIdentifiers":{"checkUpkeep(bytes)":"6e04ff0d","enterRaffle()":"2cfcc539","getEntranceFee()":"09bc33a7","getInterval()":"91ad27b4","getLatestTimeStamp()":"320229eb","getNumOfPlayers()":"565429de","getNumWords()":"53a2c19a","getPlayer(uint256)":"e55ae4e8","getRaffleState()":"115cbaf5","getRecentWinner()":"473f1ddc","getRequestConfirmations()":"5f1b0fd8","getcallbackGasLimit()":"9862eed0","getsubscriptionId()":"b4f8d9f2","performUpkeep(bytes)":"4585e33b","rawFulfillRandomWords(uint256,uint256[])":"1fe543e3"}},"storageLayout":{"storage":[{"astId":206,"contract":"contracts/Raffle.sol:Raffle","label":"s_players","offset":0,"slot":"0","type":"t_array(t_address_payable)dyn_storage"},{"astId":223,"contract":"contracts/Raffle.sol:Raffle","label":"s_recentWinner","offset":0,"slot":"1","type":"t_address"},{"astId":226,"contract":"contracts/Raffle.sol:Raffle","label":"s_raffleState","offset":20,"slot":"1","type":"t_enum(RaffleState)201"},{"astId":228,"contract":"contracts/Raffle.sol:Raffle","label":"s_lastTimeStamp","offset":0,"slot":"2","type":"t_uint256"}],"types":{"t_address":{"encoding":"inplace","label":"address","numberOfBytes":"20"},"t_address_payable":{"encoding":"inplace","label":"address payable","numberOfBytes":"20"},"t_array(t_address_payable)dyn_storage":{"base":"t_address_payable","encoding":"dynamic_array","label":"address payable[]","numberOfBytes":"32"},"t_enum(RaffleState)201":{"encoding":"inplace","label":"enum Raffle.RaffleState","numberOfBytes":"1"},"t_uint256":{"encoding":"inplace","label":"uint256","numberOfBytes":"32"}}},"userdoc":{"kind":"user","methods":{},"notice":"This contract is for creating a sample raffle contract","version":1}}}}