{
  "_format": "hh-sol-artifact-1",
  "contractName": "Raffle",
  "sourceName": "contracts/Raffle.sol",
  "abi": [
    {
      "inputs": [
        {
          "internalType": "address",
          "name": "vrfCoordinatorV2",
          "type": "address"
        },
        {
          "internalType": "string",
          "name": "subscriptionId",
          "type": "string"
        },
        {
          "internalType": "bytes32",
          "name": "gasLane",
          "type": "bytes32"
        },
        {
          "internalType": "uint256",
          "name": "interval",
          "type": "uint256"
        },
        {
          "internalType": "uint256",
          "name": "entranceFee",
          "type": "uint256"
        },
        {
          "internalType": "uint32",
          "name": "callbackGasLimit",
          "type": "uint32"
        }
      ],
      "stateMutability": "nonpayable",
      "type": "constructor"
    },
    {
      "inputs": [
        {
          "internalType": "address",
          "name": "have",
          "type": "address"
        },
        {
          "internalType": "address",
          "name": "want",
          "type": "address"
        }
      ],
      "name": "OnlyCoordinatorCanFulfill",
      "type": "error"
    },
    {
      "inputs": [],
      "name": "Raffle__NotEnoughETHEntered",
      "type": "error"
    },
    {
      "inputs": [],
      "name": "Raffle__RaffleNotOpen",
      "type": "error"
    },
    {
      "inputs": [],
      "name": "Raffle__TransferFailed",
      "type": "error"
    },
    {
      "inputs": [
        {
          "internalType": "uint256",
          "name": "currentBalance",
          "type": "uint256"
        },
        {
          "internalType": "uint256",
          "name": "numPlayers",
          "type": "uint256"
        },
        {
          "internalType": "uint256",
          "name": "raffleState",
          "type": "uint256"
        }
      ],
      "name": "Raffle__UpkeepNotNeeded",
      "type": "error"
    },
    {
      "anonymous": false,
      "inputs": [
        {
          "indexed": true,
          "internalType": "address",
          "name": "player",
          "type": "address"
        }
      ],
      "name": "RaffleEnter",
      "type": "event"
    },
    {
      "anonymous": false,
      "inputs": [
        {
          "indexed": true,
          "internalType": "uint256",
          "name": "requestId",
          "type": "uint256"
        }
      ],
      "name": "RequestRaffleWinner",
      "type": "event"
    },
    {
      "anonymous": false,
      "inputs": [
        {
          "indexed": true,
          "internalType": "address",
          "name": "winner",
          "type": "address"
        }
      ],
      "name": "WinnerPicked",
      "type": "event"
    },
    {
      "inputs": [
        {
          "internalType": "bytes",
          "name": "",
          "type": "bytes"
        }
      ],
      "name": "checkUpkeep",
      "outputs": [
        {
          "internalType": "bool",
          "name": "upkeepNeeded",
          "type": "bool"
        },
        {
          "internalType": "bytes",
          "name": "performData",
          "type": "bytes"
        }
      ],
      "stateMutability": "view",
      "type": "function"
    },
    {
      "inputs": [],
      "name": "enterRaffle",
      "outputs": [],
      "stateMutability": "payable",
      "type": "function"
    },
    {
      "inputs": [],
      "name": "getEntranceFee",
      "outputs": [
        {
          "internalType": "uint256",
          "name": "",
          "type": "uint256"
        }
      ],
      "stateMutability": "view",
      "type": "function"
    },
    {
      "inputs": [],
      "name": "getInterval",
      "outputs": [
        {
          "internalType": "uint256",
          "name": "",
          "type": "uint256"
        }
      ],
      "stateMutability": "view",
      "type": "function"
    },
    {
      "inputs": [],
      "name": "getLatestTimeStamp",
      "outputs": [
        {
          "internalType": "uint256",
          "name": "",
          "type": "uint256"
        }
      ],
      "stateMutability": "view",
      "type": "function"
    },
    {
      "inputs": [],
      "name": "getNumOfPlayers",
      "outputs": [
        {
          "internalType": "uint256",
          "name": "",
          "type": "uint256"
        }
      ],
      "stateMutability": "view",
      "type": "function"
    },
    {
      "inputs": [],
      "name": "getNumWords",
      "outputs": [
        {
          "internalType": "uint256",
          "name": "",
          "type": "uint256"
        }
      ],
      "stateMutability": "pure",
      "type": "function"
    },
    {
      "inputs": [
        {
          "internalType": "uint256",
          "name": "index",
          "type": "uint256"
        }
      ],
      "name": "getPlayer",
      "outputs": [
        {
          "internalType": "address",
          "name": "",
          "type": "address"
        }
      ],
      "stateMutability": "view",
      "type": "function"
    },
    {
      "inputs": [],
      "name": "getRaffleState",
      "outputs": [
        {
          "internalType": "enum Raffle.RaffleState",
          "name": "",
          "type": "uint8"
        }
      ],
      "stateMutability": "view",
      "type": "function"
    },
    {
      "inputs": [],
      "name": "getRecentWinner",
      "outputs": [
        {
          "internalType": "address",
          "name": "",
          "type": "address"
        }
      ],
      "stateMutability": "view",
      "type": "function"
    },
    {
      "inputs": [],
      "name": "getRequestConfirmations",
      "outputs": [
        {
          "internalType": "uint256",
          "name": "",
          "type": "uint256"
        }
      ],
      "stateMutability": "view",
      "type": "function"
    },
    {
      "inputs": [],
      "name": "getcallbackGasLimit",
      "outputs": [
        {
          "internalType": "uint256",
          "name": "",
          "type": "uint256"
        }
      ],
      "stateMutability": "view",
      "type": "function"
    },
    {
      "inputs": [],
      "name": "getsubscriptionId",
      "outputs": [
        {
          "internalType": "uint256",
          "name": "",
          "type": "uint256"
        }
      ],
      "stateMutability": "view",
      "type": "function"
    },
    {
      "inputs": [
        {
          "internalType": "bytes",
          "name": "",
          "type": "bytes"
        }
      ],
      "name": "performUpkeep",
      "outputs": [],
      "stateMutability": "nonpayable",
      "type": "function"
    },
    {
      "inputs": [
        {
          "internalType": "uint256",
          "name": "requestId",
          "type": "uint256"
        },
        {
          "internalType": "uint256[]",
          "name": "randomWords",
          "type": "uint256[]"
        }
      ],
      "name": "rawFulfillRandomWords",
      "outputs": [],
      "stateMutability": "nonpayable",
      "type": "function"
    }
  ],
  "bytecode": "0x6101606040523480156200001257600080fd5b5060405162001e2d38038062001e2d833981810160405281019062000038919062000311565b858073ffffffffffffffffffffffffffffffffffffffff1660808173ffffffffffffffffffffffffffffffffffffffff1660601b81525050508573ffffffffffffffffffffffffffffffffffffffff1660c08173ffffffffffffffffffffffffffffffffffffffff1660601b815250508360e08181525050826101408181525050620000ca856200014a60201b60201c565b67ffffffffffffffff166101008167ffffffffffffffff1660c01b815250508160a081815250506000600160146101000a81548160ff021916908360018111156200011a576200011962000672565b5b0217905550426002819055508063ffffffff166101208163ffffffff1660e01b815250505050505050506200078c565b6000808290506000805b82518110156200022c576030838281518110620001765762000175620006a1565b5b602001015160f81c60f81b60f81c60ff1610158015620001bd57506039838281518110620001a957620001a8620006a1565b5b602001015160f81c60f81b60f81c60ff1611155b1562000216576030838281518110620001db57620001da620006a1565b5b602001015160f81c60f81b60f81c620001f59190620004e9565b60ff16600a8362000207919062000488565b6200021391906200042b565b91505b80806200022390620005f5565b91505062000154565b508092505050919050565b60006200024e6200024884620003f5565b620003cc565b9050828152602081018484840111156200026d576200026c62000704565b5b6200027a84828562000589565b509392505050565b600081519050620002938162000724565b92915050565b600081519050620002aa816200073e565b92915050565b600082601f830112620002c857620002c7620006ff565b5b8151620002da84826020860162000237565b91505092915050565b600081519050620002f48162000758565b92915050565b6000815190506200030b8162000772565b92915050565b60008060008060008060c087890312156200033157620003306200070e565b5b60006200034189828a0162000282565b965050602087015167ffffffffffffffff81111562000365576200036462000709565b5b6200037389828a01620002b0565b95505060406200038689828a0162000299565b94505060606200039989828a01620002e3565b9350506080620003ac89828a01620002e3565b92505060a0620003bf89828a01620002fa565b9150509295509295509295565b6000620003d8620003eb565b9050620003e68282620005bf565b919050565b6000604051905090565b600067ffffffffffffffff821115620004135762000412620006d0565b5b6200041e8262000713565b9050602081019050919050565b6000620004388262000562565b9150620004458362000562565b9250827fffffffffffffffffffffffffffffffffffffffffffffffffffffffffffffffff038211156200047d576200047c62000643565b5b828201905092915050565b6000620004958262000562565b9150620004a28362000562565b9250817fffffffffffffffffffffffffffffffffffffffffffffffffffffffffffffffff0483118215151615620004de57620004dd62000643565b5b828202905092915050565b6000620004f6826200057c565b915062000503836200057c565b92508282101562000519576200051862000643565b5b828203905092915050565b6000620005318262000542565b9050919050565b6000819050919050565b600073ffffffffffffffffffffffffffffffffffffffff82169050919050565b6000819050919050565b600063ffffffff82169050919050565b600060ff82169050919050565b60005b83811015620005a95780820151818401526020810190506200058c565b83811115620005b9576000848401525b50505050565b620005ca8262000713565b810181811067ffffffffffffffff82111715620005ec57620005eb620006d0565b5b80604052505050565b6000620006028262000562565b91507fffffffffffffffffffffffffffffffffffffffffffffffffffffffffffffffff82141562000638576200063762000643565b5b600182019050919050565b7f4e487b7100000000000000000000000000000000000000000000000000000000600052601160045260246000fd5b7f4e487b7100000000000000000000000000000000000000000000000000000000600052602160045260246000fd5b7f4e487b7100000000000000000000000000000000000000000000000000000000600052603260045260246000fd5b7f4e487b7100000000000000000000000000000000000000000000000000000000600052604160045260246000fd5b600080fd5b600080fd5b600080fd5b600080fd5b6000601f19601f8301169050919050565b6200072f8162000524565b81146200073b57600080fd5b50565b620007498162000538565b81146200075557600080fd5b50565b620007638162000562565b81146200076f57600080fd5b50565b6200077d816200056c565b81146200078957600080fd5b50565b60805160601c60a05160c05160601c60e0516101005160c01c6101205160e01c6101405161161762000816600039600081816108f20152610962015260008181610795015261098a01526000818161077201526109b8015260006107510152600061071501526000818161037601526104730152600081816103b3015261040701526116176000f3fe6080604052600436106100e85760003560e01c806353a2c19a1161008a57806391ad27b41161005957806391ad27b4146102b45780639862eed0146102df578063b4f8d9f21461030a578063e55ae4e814610335576100e8565b806353a2c19a146101f5578063565429de146102205780635f1b0fd81461024b5780636e04ff0d14610276576100e8565b80632cfcc539116100c65780632cfcc5391461016c578063320229eb146101765780634585e33b146101a1578063473f1ddc146101ca576100e8565b806309bc33a7146100ed578063115cbaf5146101185780631fe543e314610143575b600080fd5b3480156100f957600080fd5b50610102610372565b60405161010f9190611215565b60405180910390f35b34801561012457600080fd5b5061012d61039a565b60405161013a91906111da565b60405180910390f35b34801561014f57600080fd5b5061016a60048036038101906101659190610fab565b6103b1565b005b610174610471565b005b34801561018257600080fd5b5061018b6105e0565b6040516101989190611215565b60405180910390f35b3480156101ad57600080fd5b506101c860048036038101906101c39190610f04565b6105ea565b005b3480156101d657600080fd5b506101df61085d565b6040516101ec9190611113565b60405180910390f35b34801561020157600080fd5b5061020a610887565b6040516102179190611215565b60405180910390f35b34801561022c57600080fd5b50610235610896565b6040516102429190611215565b60405180910390f35b34801561025757600080fd5b506102606108a2565b60405161026d9190611215565b60405180910390f35b34801561028257600080fd5b5061029d60048036038101906102989190610f04565b6108af565b6040516102ab929190611157565b60405180910390f35b3480156102c057600080fd5b506102c961095e565b6040516102d69190611215565b60405180910390f35b3480156102eb57600080fd5b506102f4610986565b6040516103019190611215565b60405180910390f35b34801561031657600080fd5b5061031f6109b4565b60405161032c9190611215565b60405180910390f35b34801561034157600080fd5b5061035c60048036038101906103579190610f51565b6109e6565b6040516103699190611113565b60405180910390f35b60007f0000000000000000000000000000000000000000000000000000000000000000905090565b6000600160149054906101000a900460ff16905090565b7f000000000000000000000000000000000000000000000000000000000000000073ffffffffffffffffffffffffffffffffffffffff163373ffffffffffffffffffffffffffffffffffffffff161461046357337f00000000000000000000000000000000000000000000000000000000000000006040517f1cf993f400000000000000000000000000000000000000000000000000000000815260040161045a92919061112e565b60405180910390fd5b61046d8282610a2d565b5050565b7f00000000000000000000000000000000000000000000000000000000000000003410156104cb576040517fbd4e069500000000000000000000000000000000000000000000000000000000815260040160405180910390fd5b600060018111156104df576104de6114e0565b5b600160149054906101000a900460ff166001811115610501576105006114e0565b5b14610538576040517fd24a271400000000000000000000000000000000000000000000000000000000815260040160405180910390fd5b6000339080600181540180825580915050600190039060005260206000200160009091909190916101000a81548173ffffffffffffffffffffffffffffffffffffffff021916908373ffffffffffffffffffffffffffffffffffffffff1602179055503373ffffffffffffffffffffffffffffffffffffffff167f0805e1d667bddb8a95f0f09880cf94f403fb596ce79928d9f29b74203ba284d460405160405180910390a2565b6000600254905090565b60003073ffffffffffffffffffffffffffffffffffffffff16636e04ff0d6040518163ffffffff1660e01b8152600401610623906111f5565b60006040518083038186803b15801561063b57600080fd5b505afa15801561064f573d6000803e3d6000fd5b505050506040513d6000823e3d601f19601f820116820180604052508101906106789190610ea8565b509050806106e75747600080549050600160149054906101000a900460ff1660018111156106a9576106a86114e0565b5b6040517f584327aa0000000000000000000000000000000000000000000000000000000081526004016106de93929190611230565b60405180910390fd5b60018060146101000a81548160ff0219169083600181111561070c5761070b6114e0565b5b021790555060007f000000000000000000000000000000000000000000000000000000000000000073ffffffffffffffffffffffffffffffffffffffff16635d3b1d307f00000000000000000000000000000000000000000000000000000000000000007f000000000000000000000000000000000000000000000000000000000000000060037f000000000000000000000000000000000000000000000000000000000000000060016040518663ffffffff1660e01b81526004016107d6959493929190611187565b602060405180830381600087803b1580156107f057600080fd5b505af1158015610804573d6000803e3d6000fd5b505050506040513d601f19601f820116820180604052508101906108289190610f7e565b9050807fde6349b018d6c03d837b67d9a198a6ba4842546f2295fe963fae141e5dbaef8160405160405180910390a250505050565b6000600160009054906101000a900473ffffffffffffffffffffffffffffffffffffffff16905090565b6000600163ffffffff16905090565b60008080549050905090565b6000600361ffff16905090565b600060606000600160149054906101000a900460ff1660018111156108d7576108d66114e0565b5b600060018111156108eb576108ea6114e0565b5b14905060007f00000000000000000000000000000000000000000000000000000000000000006002544261091f9190611310565b1190506000806000805490501190506000804711905083801561093f5750825b80156109485750815b80156109515750805b9550505050509250929050565b60007f0000000000000000000000000000000000000000000000000000000000000000905090565b60007f000000000000000000000000000000000000000000000000000000000000000063ffffffff16905090565b60007f000000000000000000000000000000000000000000000000000000000000000067ffffffffffffffff16905090565b60008082815481106109fb576109fa61150f565b5b9060005260206000200160009054906101000a900473ffffffffffffffffffffffffffffffffffffffff169050919050565b6000808054905082600081518110610a4857610a4761150f565b5b6020026020010151610a5a9190611451565b90506000808281548110610a7157610a7061150f565b5b9060005260206000200160009054906101000a900473ffffffffffffffffffffffffffffffffffffffff16905080600160006101000a81548173ffffffffffffffffffffffffffffffffffffffff021916908373ffffffffffffffffffffffffffffffffffffffff1602179055506000600160146101000a81548160ff02191690836001811115610b0557610b046114e0565b5b0217905550600067ffffffffffffffff811115610b2557610b2461153e565b5b604051908082528060200260200182016040528015610b535781602001602082028036833780820191505090505b5060009080519060200190610b69929190610c5e565b504260028190555060008173ffffffffffffffffffffffffffffffffffffffff1647604051610b97906110fe565b60006040518083038185875af1925050503d8060008114610bd4576040519150601f19603f3d011682016040523d82523d6000602084013e610bd9565b606091505b5050905080610c14576040517fa1d04b3900000000000000000000000000000000000000000000000000000000815260040160405180910390fd5b8173ffffffffffffffffffffffffffffffffffffffff167f5b690ec4a06fe979403046eaeea5b3ce38524683c3001f662c8b5a829632f7df60405160405180910390a25050505050565b828054828255906000526020600020908101928215610cd7579160200282015b82811115610cd65782518260006101000a81548173ffffffffffffffffffffffffffffffffffffffff021916908373ffffffffffffffffffffffffffffffffffffffff16021790555091602001919060010190610c7e565b5b509050610ce49190610ce8565b5090565b5b80821115610d01576000816000905550600101610ce9565b5090565b6000610d18610d138461128c565b611267565b90508083825260208201905082856020860282011115610d3b57610d3a611577565b5b60005b85811015610d6b5781610d518882610e7e565b845260208401935060208301925050600181019050610d3e565b5050509392505050565b6000610d88610d83846112b8565b611267565b905082815260208101848484011115610da457610da361157c565b5b610daf8482856113ed565b509392505050565b600082601f830112610dcc57610dcb611572565b5b8135610ddc848260208601610d05565b91505092915050565b600081519050610df4816115b3565b92915050565b60008083601f840112610e1057610e0f611572565b5b8235905067ffffffffffffffff811115610e2d57610e2c61156d565b5b602083019150836001820283011115610e4957610e48611577565b5b9250929050565b600082601f830112610e6557610e64611572565b5b8151610e75848260208601610d75565b91505092915050565b600081359050610e8d816115ca565b92915050565b600081519050610ea2816115ca565b92915050565b60008060408385031215610ebf57610ebe611586565b5b6000610ecd85828601610de5565b925050602083015167ffffffffffffffff811115610eee57610eed611581565b5b610efa85828601610e50565b9150509250929050565b60008060208385031215610f1b57610f1a611586565b5b600083013567ffffffffffffffff811115610f3957610f38611581565b5b610f4585828601610dfa565b92509250509250929050565b600060208284031215610f6757610f66611586565b5b6000610f7584828501610e7e565b91505092915050565b600060208284031215610f9457610f93611586565b5b6000610fa284828501610e93565b91505092915050565b60008060408385031215610fc257610fc1611586565b5b6000610fd085828601610e7e565b925050602083013567ffffffffffffffff811115610ff157610ff0611581565b5b610ffd85828601610db7565b9150509250929050565b61101081611344565b82525050565b61101f81611356565b82525050565b61102e81611362565b82525050565b600061103f826112e9565b61104981856112f4565b93506110598185602086016113ed565b6110628161158b565b840191505092915050565b611076816113db565b82525050565b60006110896000836112f4565b91506110948261159c565b600082019050919050565b60006110ac600083611305565b91506110b78261159c565b600082019050919050565b6110cb8161137f565b82525050565b6110da816113ad565b82525050565b6110e9816113b7565b82525050565b6110f8816113c7565b82525050565b60006111098261109f565b9150819050919050565b60006020820190506111286000830184611007565b92915050565b60006040820190506111436000830185611007565b6111506020830184611007565b9392505050565b600060408201905061116c6000830185611016565b818103602083015261117e8184611034565b90509392505050565b600060a08201905061119c6000830188611025565b6111a960208301876110ef565b6111b660408301866110c2565b6111c360608301856110e0565b6111d060808301846110e0565b9695505050505050565b60006020820190506111ef600083018461106d565b92915050565b6000602082019050818103600083015261120e8161107c565b9050919050565b600060208201905061122a60008301846110d1565b92915050565b600060608201905061124560008301866110d1565b61125260208301856110d1565b61125f60408301846110d1565b949350505050565b6000611271611282565b905061127d8282611420565b919050565b6000604051905090565b600067ffffffffffffffff8211156112a7576112a661153e565b5b602082029050602081019050919050565b600067ffffffffffffffff8211156112d3576112d261153e565b5b6112dc8261158b565b9050602081019050919050565b600081519050919050565b600082825260208201905092915050565b600081905092915050565b600061131b826113ad565b9150611326836113ad565b92508282101561133957611338611482565b5b828203905092915050565b600061134f8261138d565b9050919050565b60008115159050919050565b6000819050919050565b600081905061137a8261159f565b919050565b600061ffff82169050919050565b600073ffffffffffffffffffffffffffffffffffffffff82169050919050565b6000819050919050565b600063ffffffff82169050919050565b600067ffffffffffffffff82169050919050565b60006113e68261136c565b9050919050565b60005b8381101561140b5780820151818401526020810190506113f0565b8381111561141a576000848401525b50505050565b6114298261158b565b810181811067ffffffffffffffff821117156114485761144761153e565b5b80604052505050565b600061145c826113ad565b9150611467836113ad565b925082611477576114766114b1565b5b828206905092915050565b7f4e487b7100000000000000000000000000000000000000000000000000000000600052601160045260246000fd5b7f4e487b7100000000000000000000000000000000000000000000000000000000600052601260045260246000fd5b7f4e487b7100000000000000000000000000000000000000000000000000000000600052602160045260246000fd5b7f4e487b7100000000000000000000000000000000000000000000000000000000600052603260045260246000fd5b7f4e487b7100000000000000000000000000000000000000000000000000000000600052604160045260246000fd5b600080fd5b600080fd5b600080fd5b600080fd5b600080fd5b600080fd5b6000601f19601f8301169050919050565b50565b600281106115b0576115af6114e0565b5b50565b6115bc81611356565b81146115c757600080fd5b50565b6115d3816113ad565b81146115de57600080fd5b5056fea264697066735822122064b56fa66b0ddf60e2e0c79eddf78c94e1e1236f36fefff231eea00774d7738564736f6c63430008070033",
  "linkReferences": {},
  "deployedLinkReferences": {}
}